{
  "contractName": "StudentSkills",
  "abi": [
    {
      "inputs": [
        {
          "internalType": "string",
          "name": "newPublicKey",
          "type": "string"
        },
        {
          "internalType": "string",
          "name": "newHashedData",
          "type": "string"
        }
      ],
      "stateMutability": "nonpayable",
      "type": "constructor"
    },
    {
      "inputs": [
        {
          "internalType": "uint256",
          "name": "",
          "type": "uint256"
        }
      ],
      "name": "entries",
      "outputs": [
        {
          "internalType": "string",
          "name": "encryptedData",
          "type": "string"
        },
        {
          "internalType": "string",
          "name": "signature",
          "type": "string"
        },
        {
          "internalType": "string",
          "name": "employerPublicKey",
          "type": "string"
        }
      ],
      "stateMutability": "view",
      "type": "function"
    },
    {
      "inputs": [],
      "name": "hashedData",
      "outputs": [
        {
          "internalType": "string",
          "name": "",
          "type": "string"
        }
      ],
      "stateMutability": "view",
      "type": "function"
    },
    {
      "inputs": [],
      "name": "numberOfEntries",
      "outputs": [
        {
          "internalType": "uint256",
          "name": "",
          "type": "uint256"
        }
      ],
      "stateMutability": "view",
      "type": "function"
    },
    {
      "inputs": [],
      "name": "publicKey",
      "outputs": [
        {
          "internalType": "string",
          "name": "",
          "type": "string"
        }
      ],
      "stateMutability": "view",
      "type": "function"
    },
    {
      "inputs": [
        {
          "internalType": "string",
          "name": "newEncryptedData",
          "type": "string"
        },
        {
          "internalType": "string",
          "name": "newSignature",
          "type": "string"
        },
        {
          "internalType": "string",
          "name": "newEmployerPublicKey",
          "type": "string"
        }
      ],
      "name": "addEntry",
      "outputs": [],
      "stateMutability": "nonpayable",
      "type": "function"
    },
    {
      "inputs": [
        {
          "internalType": "string",
          "name": "employerPublicKey",
          "type": "string"
        }
      ],
      "name": "deleteEntry",
      "outputs": [],
      "stateMutability": "nonpayable",
      "type": "function"
    },
    {
      "inputs": [],
      "name": "getEntries",
      "outputs": [
        {
          "internalType": "string[]",
          "name": "",
          "type": "string[]"
        }
      ],
      "stateMutability": "view",
      "type": "function"
    },
    {
      "inputs": [],
      "name": "getPublicKey",
      "outputs": [
        {
          "internalType": "string",
          "name": "",
          "type": "string"
        }
      ],
      "stateMutability": "view",
      "type": "function"
    },
    {
      "inputs": [],
      "name": "getHashedData",
      "outputs": [
        {
          "internalType": "string",
          "name": "",
          "type": "string"
        }
      ],
      "stateMutability": "view",
      "type": "function"
    }
  ],
  "bytecode": "0x60806040523480156200001157600080fd5b506040516200179a3803806200179a8339818101604052810190620000379190620002c6565b81600090805190602001906200004f92919062000079565b5080600190805190602001906200006892919062000079565b5060006002819055505050620003af565b82805462000087906200037a565b90600052602060002090601f016020900481019282620000ab5760008555620000f7565b82601f10620000c657805160ff1916838001178555620000f7565b82800160010185558215620000f7579182015b82811115620000f6578251825591602001919060010190620000d9565b5b5090506200010691906200010a565b5090565b5b80821115620001255760008160009055506001016200010b565b5090565b6000604051905090565b600080fd5b600080fd5b600080fd5b600080fd5b6000601f19601f8301169050919050565b7f4e487b7100000000000000000000000000000000000000000000000000000000600052604160045260246000fd5b620001928262000147565b810181811067ffffffffffffffff82111715620001b457620001b362000158565b5b80604052505050565b6000620001c962000129565b9050620001d7828262000187565b919050565b600067ffffffffffffffff821115620001fa57620001f962000158565b5b620002058262000147565b9050602081019050919050565b60005b838110156200023257808201518184015260208101905062000215565b8381111562000242576000848401525b50505050565b60006200025f6200025984620001dc565b620001bd565b9050828152602081018484840111156200027e576200027d62000142565b5b6200028b84828562000212565b509392505050565b600082601f830112620002ab57620002aa6200013d565b5b8151620002bd84826020860162000248565b91505092915050565b60008060408385031215620002e057620002df62000133565b5b600083015167ffffffffffffffff81111562000301576200030062000138565b5b6200030f8582860162000293565b925050602083015167ffffffffffffffff81111562000333576200033262000138565b5b620003418582860162000293565b9150509250929050565b7f4e487b7100000000000000000000000000000000000000000000000000000000600052602260045260246000fd5b600060028204905060018216806200039357607f821691505b602082108103620003a957620003a86200034b565b5b50919050565b6113db80620003bf6000396000f3fe608060405234801561001057600080fd5b50600436106100935760003560e01c8063825f787211610066578063825f78721461010e578063b30906d41461012c578063b7b1606a1461015e578063bb3371521461017c578063e7a9f27f1461019a57610093565b8063176745441461009857806317be85c3146100b45780632e334452146100d257806363ffab31146100f0575b600080fd5b6100b260048036038101906100ad9190610bde565b6101b6565b005b6100bc610366565b6040516100c99190610d71565b60405180910390f35b6100da610465565b6040516100e79190610ddd565b60405180910390f35b6100f86104f7565b6040516101059190610ddd565b60405180910390f35b610116610585565b6040516101239190610e18565b60405180910390f35b61014660048036038101906101419190610e5f565b61058b565b60405161015593929190610e8c565b60405180910390f35b61016661074d565b6040516101739190610ddd565b60405180910390f35b6101846107db565b6040516101919190610ddd565b60405180910390f35b6101b460048036038101906101af9190610ed8565b61086d565b005b60005b60025481101561032757816040516020016101d49190610fbb565b604051602081830303815290604052805190602001206003600083815260200190815260200160002060020160405160200161021091906110c6565b604051602081830303815290604052805190602001200361031457600360008281526020019081526020016000206000808201600061024f9190610914565b60018201600061025f9190610914565b60028201600061026f9190610914565b5050600360006002600081546102849061110c565b91905081905581526020019081526020016000206003600083815260200190815260200160002060008201816000019080546102bf90611001565b6102ca929190610954565b5060018201816001019080546102df90611001565b6102ea929190610954565b5060028201816002019080546102ff90611001565b61030a929190610954565b5090505050610363565b808061031f90611135565b9150506101b9565b506040517f08c379a000000000000000000000000000000000000000000000000000000000815260040161035a906111c9565b60405180910390fd5b50565b6060600060025467ffffffffffffffff81111561038657610385610ab3565b5b6040519080825280602002602001820160405280156103b957816020015b60608152602001906001900390816103a45790505b50905060005b60025481101561045d5760036000828152602001908152602001600020600001600360008381526020019081526020016000206001016003600084815260200190815260200160002060020160405160200161041d93929190611319565b60405160208183030381529060405282828151811061043f5761043e611376565b5b6020026020010181905250808061045590611135565b9150506103bf565b508091505090565b60606000805461047490611001565b80601f01602080910402602001604051908101604052809291908181526020018280546104a090611001565b80156104ed5780601f106104c2576101008083540402835291602001916104ed565b820191906000526020600020905b8154815290600101906020018083116104d057829003601f168201915b5050505050905090565b6000805461050490611001565b80601f016020809104026020016040519081016040528092919081815260200182805461053090611001565b801561057d5780601f106105525761010080835404028352916020019161057d565b820191906000526020600020905b81548152906001019060200180831161056057829003601f168201915b505050505081565b60025481565b60036020528060005260406000206000915090508060000180546105ae90611001565b80601f01602080910402602001604051908101604052809291908181526020018280546105da90611001565b80156106275780601f106105fc57610100808354040283529160200191610627565b820191906000526020600020905b81548152906001019060200180831161060a57829003601f168201915b50505050509080600101805461063c90611001565b80601f016020809104026020016040519081016040528092919081815260200182805461066890611001565b80156106b55780601f1061068a576101008083540402835291602001916106b5565b820191906000526020600020905b81548152906001019060200180831161069857829003601f168201915b5050505050908060020180546106ca90611001565b80601f01602080910402602001604051908101604052809291908181526020018280546106f690611001565b80156107435780601f1061071857610100808354040283529160200191610743565b820191906000526020600020905b81548152906001019060200180831161072657829003601f168201915b5050505050905083565b6001805461075a90611001565b80601f016020809104026020016040519081016040528092919081815260200182805461078690611001565b80156107d35780601f106107a8576101008083540402835291602001916107d3565b820191906000526020600020905b8154815290600101906020018083116107b657829003601f168201915b505050505081565b6060600180546107ea90611001565b80601f016020809104026020016040519081016040528092919081815260200182805461081690611001565b80156108635780601f1061083857610100808354040283529160200191610863565b820191906000526020600020905b81548152906001019060200180831161084657829003601f168201915b5050505050905090565b60405180606001604052808481526020018381526020018281525060036000600254815260200190815260200160002060008201518160000190805190602001906108b99291906109e1565b5060208201518160010190805190602001906108d69291906109e1565b5060408201518160020190805190602001906108f39291906109e1565b509050506002600081548092919061090a90611135565b9190505550505050565b50805461092090611001565b6000825580601f106109325750610951565b601f0160209004906000526020600020908101906109509190610a67565b5b50565b82805461096090611001565b90600052602060002090601f01602090048101928261098257600085556109d0565b82601f1061099357805485556109d0565b828001600101855582156109d057600052602060002091601f016020900482015b828111156109cf5782548255916001019190600101906109b4565b5b5090506109dd9190610a67565b5090565b8280546109ed90611001565b90600052602060002090601f016020900481019282610a0f5760008555610a56565b82601f10610a2857805160ff1916838001178555610a56565b82800160010185558215610a56579182015b82811115610a55578251825591602001919060010190610a3a565b5b509050610a639190610a67565b5090565b5b80821115610a80576000816000905550600101610a68565b5090565b6000604051905090565b600080fd5b600080fd5b600080fd5b600080fd5b6000601f19601f8301169050919050565b7f4e487b7100000000000000000000000000000000000000000000000000000000600052604160045260246000fd5b610aeb82610aa2565b810181811067ffffffffffffffff82111715610b0a57610b09610ab3565b5b80604052505050565b6000610b1d610a84565b9050610b298282610ae2565b919050565b600067ffffffffffffffff821115610b4957610b48610ab3565b5b610b5282610aa2565b9050602081019050919050565b82818337600083830152505050565b6000610b81610b7c84610b2e565b610b13565b905082815260208101848484011115610b9d57610b9c610a9d565b5b610ba8848285610b5f565b509392505050565b600082601f830112610bc557610bc4610a98565b5b8135610bd5848260208601610b6e565b91505092915050565b600060208284031215610bf457610bf3610a8e565b5b600082013567ffffffffffffffff811115610c1257610c11610a93565b5b610c1e84828501610bb0565b91505092915050565b600081519050919050565b600082825260208201905092915050565b6000819050602082019050919050565b600081519050919050565b600082825260208201905092915050565b60005b83811015610c8d578082015181840152602081019050610c72565b83811115610c9c576000848401525b50505050565b6000610cad82610c53565b610cb78185610c5e565b9350610cc7818560208601610c6f565b610cd081610aa2565b840191505092915050565b6000610ce78383610ca2565b905092915050565b6000602082019050919050565b6000610d0782610c27565b610d118185610c32565b935083602082028501610d2385610c43565b8060005b85811015610d5f5784840389528151610d408582610cdb565b9450610d4b83610cef565b925060208a01995050600181019050610d27565b50829750879550505050505092915050565b60006020820190508181036000830152610d8b8184610cfc565b905092915050565b600082825260208201905092915050565b6000610daf82610c53565b610db98185610d93565b9350610dc9818560208601610c6f565b610dd281610aa2565b840191505092915050565b60006020820190508181036000830152610df78184610da4565b905092915050565b6000819050919050565b610e1281610dff565b82525050565b6000602082019050610e2d6000830184610e09565b92915050565b610e3c81610dff565b8114610e4757600080fd5b50565b600081359050610e5981610e33565b92915050565b600060208284031215610e7557610e74610a8e565b5b6000610e8384828501610e4a565b91505092915050565b60006060820190508181036000830152610ea68186610da4565b90508181036020830152610eba8185610da4565b90508181036040830152610ece8184610da4565b9050949350505050565b600080600060608486031215610ef157610ef0610a8e565b5b600084013567ffffffffffffffff811115610f0f57610f0e610a93565b5b610f1b86828701610bb0565b935050602084013567ffffffffffffffff811115610f3c57610f3b610a93565b5b610f4886828701610bb0565b925050604084013567ffffffffffffffff811115610f6957610f68610a93565b5b610f7586828701610bb0565b9150509250925092565b600081905092915050565b6000610f9582610c53565b610f9f8185610f7f565b9350610faf818560208601610c6f565b80840191505092915050565b6000610fc78284610f8a565b915081905092915050565b7f4e487b7100000000000000000000000000000000000000000000000000000000600052602260045260246000fd5b6000600282049050600182168061101957607f821691505b60208210810361102c5761102b610fd2565b5b50919050565b60008190508160005260206000209050919050565b6000815461105481611001565b61105e8186610f7f565b94506001821660008114611079576001811461108a576110bd565b60ff198316865281860193506110bd565b61109385611032565b60005b838110156110b557815481890152600182019150602081019050611096565b838801955050505b50505092915050565b60006110d28284611047565b915081905092915050565b7f4e487b7100000000000000000000000000000000000000000000000000000000600052601160045260246000fd5b600061111782610dff565b91506000820361112a576111296110dd565b5b600182039050919050565b600061114082610dff565b91507fffffffffffffffffffffffffffffffffffffffffffffffffffffffffffffffff8203611172576111716110dd565b5b600182019050919050565b7f456e747279206e6f7420666f756e640000000000000000000000000000000000600082015250565b60006111b3600f83610d93565b91506111be8261117d565b602082019050919050565b600060208201905081810360008301526111e2816111a6565b9050919050565b7f7b22656e6372797074656444617461223a220000000000000000000000000000600082015250565b600061121f601283610f7f565b915061122a826111e9565b601282019050919050565b7f222c20227369676e6174757265223a2200000000000000000000000000000000600082015250565b600061126b601083610f7f565b915061127682611235565b601082019050919050565b7f222c2022656d706c6f7965725075626c69634b6579223a220000000000000000600082015250565b60006112b7601883610f7f565b91506112c282611281565b601882019050919050565b7f227d000000000000000000000000000000000000000000000000000000000000600082015250565b6000611303600283610f7f565b915061130e826112cd565b600282019050919050565b600061132482611212565b91506113308286611047565b915061133b8261125e565b91506113478285611047565b9150611352826112aa565b915061135e8284611047565b9150611369826112f6565b9150819050949350505050565b7f4e487b7100000000000000000000000000000000000000000000000000000000600052603260045260246000fdfea26469706673582212203e0b7b75d01b47d5d60284eac43727fddc50a6aea44e8322dd2266f6849a47ae64736f6c634300080d0033",
  "immutableReferences": {},
  "source": "//SPDX-License-Identifier: MIT \r\npragma solidity ^0.8.13;\r\n\r\ncontract StudentSkills{\r\n    string public publicKey;\r\n    string public hashedData;\r\n    uint256 public numberOfEntries; \r\n\r\n    struct Entry {\r\n        string encryptedData; //Might have to make an extra Entry for signatures\r\n        string signature;\r\n        string employerPublicKey;\r\n    }\r\n\r\n    mapping(uint256 => Entry) public entries;\r\n\r\n    constructor(string memory newPublicKey, string memory newHashedData){\r\n        publicKey = newPublicKey;\r\n        hashedData = newHashedData;\r\n        numberOfEntries = 0;\r\n    }\r\n\r\n    function addEntry(string memory newEncryptedData, string memory newSignature, string memory newEmployerPublicKey) public {\r\n        entries[numberOfEntries] = Entry(newEncryptedData, newSignature, newEmployerPublicKey);\r\n        numberOfEntries++;\r\n    }\r\n\r\n    function deleteEntry(string memory employerPublicKey) public {\r\n            for (uint256 i = 0; i < numberOfEntries; i++) {\r\n                if (keccak256(abi.encodePacked(entries[i].employerPublicKey)) == keccak256(abi.encodePacked(employerPublicKey))) {\r\n                    delete entries[i];\r\n                    // Move the last entry to the deleted index and decrement the count\r\n                    entries[i] = entries[--numberOfEntries];\r\n                    return;\r\n                }\r\n            }\r\n            revert(\"Entry not found\");\r\n    }\r\n\r\n    function getEntries() public view returns (string[] memory) {\r\n        string[] memory dataList = new string[](numberOfEntries);\r\n        for (uint256 i = 0; i < numberOfEntries; i++) {\r\n            dataList[i] = string(abi.encodePacked(\r\n            '{\"encryptedData\":\"', entries[i].encryptedData,\r\n            '\", \"signature\":\"', entries[i].signature,\r\n            '\", \"employerPublicKey\":\"', entries[i].employerPublicKey,\r\n            '\"}'));\r\n        }\r\n        return dataList;\r\n    }\r\n    function getPublicKey() public view returns (string memory){\r\n        return publicKey;\r\n    }\r\n\r\n    function getHashedData() public view returns (string memory){\r\n        return hashedData;\r\n    }\r\n}\r\n",
  "sourcePath": "C:\\Users\\Amos\\Documents\\UNI\\IFQ711\\projects\\WebApi\\web-api\\src\\blockchainserver\\contracts\\StudentSkills.sol",
  "compiler": {
    "name": "solc",
    "version": "0.8.13+commit.abaa5c0e.Emscripten.clang"
  },
  "schemaVersion": "3.4.16",
  "updatedAt": "2024-04-05T03:22:01.646Z",
  "devdoc": {
    "kind": "dev",
    "methods": {},
    "version": 1
  },
  "userdoc": {
    "kind": "user",
    "methods": {},
    "version": 1
  }
}