{
  "contractName": "StudentSkills",
  "abi": [
    {
      "inputs": [
        {
          "internalType": "string",
          "name": "newPublicKey",
          "type": "string"
        },
        {
          "internalType": "string",
          "name": "newHashedData",
          "type": "string"
        },
        {
          "internalType": "string",
          "name": "newSignaturePublicKey",
          "type": "string"
        }
      ],
      "stateMutability": "nonpayable",
      "type": "constructor"
    },
    {
      "inputs": [
        {
          "internalType": "uint256",
          "name": "",
          "type": "uint256"
        }
      ],
      "name": "entries",
      "outputs": [
        {
          "internalType": "string",
          "name": "encryptedData",
          "type": "string"
        },
        {
          "internalType": "string",
          "name": "signature",
          "type": "string"
        },
        {
          "internalType": "string",
          "name": "employerPublicKey",
          "type": "string"
        }
      ],
      "stateMutability": "view",
      "type": "function"
    },
    {
      "inputs": [],
      "name": "hashedData",
      "outputs": [
        {
          "internalType": "string",
          "name": "",
          "type": "string"
        }
      ],
      "stateMutability": "view",
      "type": "function"
    },
    {
      "inputs": [],
      "name": "numberOfEntries",
      "outputs": [
        {
          "internalType": "uint256",
          "name": "",
          "type": "uint256"
        }
      ],
      "stateMutability": "view",
      "type": "function"
    },
    {
      "inputs": [],
      "name": "publicKey",
      "outputs": [
        {
          "internalType": "string",
          "name": "",
          "type": "string"
        }
      ],
      "stateMutability": "view",
      "type": "function"
    },
    {
      "inputs": [],
      "name": "signaturePublicKey",
      "outputs": [
        {
          "internalType": "string",
          "name": "",
          "type": "string"
        }
      ],
      "stateMutability": "view",
      "type": "function"
    },
    {
      "inputs": [
        {
          "internalType": "string",
          "name": "newEncryptedData",
          "type": "string"
        },
        {
          "internalType": "string",
          "name": "newSignature",
          "type": "string"
        },
        {
          "internalType": "string",
          "name": "newEmployerPublicKey",
          "type": "string"
        }
      ],
      "name": "addEntry",
      "outputs": [],
      "stateMutability": "nonpayable",
      "type": "function"
    },
    {
      "inputs": [
        {
          "internalType": "string",
          "name": "employerPublicKey",
          "type": "string"
        }
      ],
      "name": "deleteEntry",
      "outputs": [],
      "stateMutability": "nonpayable",
      "type": "function"
    },
    {
      "inputs": [],
      "name": "getEntries",
      "outputs": [
        {
          "internalType": "string[]",
          "name": "",
          "type": "string[]"
        }
      ],
      "stateMutability": "view",
      "type": "function"
    },
    {
      "inputs": [],
      "name": "getPublicKey",
      "outputs": [
        {
          "internalType": "string",
          "name": "",
          "type": "string"
        }
      ],
      "stateMutability": "view",
      "type": "function"
    },
    {
      "inputs": [],
      "name": "getSignaturePublicKey",
      "outputs": [
        {
          "internalType": "string",
          "name": "",
          "type": "string"
        }
      ],
      "stateMutability": "view",
      "type": "function"
    },
    {
      "inputs": [],
      "name": "getHashedData",
      "outputs": [
        {
          "internalType": "string",
          "name": "",
          "type": "string"
        }
      ],
      "stateMutability": "view",
      "type": "function"
    }
  ],
  "bytecode": "0x60806040523480156200001157600080fd5b506040516200195a3803806200195a8339818101604052810190620000379190620002e0565b82600090805190602001906200004f92919062000093565b5081600190805190602001906200006892919062000093565b5080600390805190602001906200008192919062000093565b506000600281905550505050620003fd565b828054620000a190620003c8565b90600052602060002090601f016020900481019282620000c5576000855562000111565b82601f10620000e057805160ff191683800117855562000111565b8280016001018555821562000111579182015b8281111562000110578251825591602001919060010190620000f3565b5b50905062000120919062000124565b5090565b5b808211156200013f57600081600090555060010162000125565b5090565b6000604051905090565b600080fd5b600080fd5b600080fd5b600080fd5b6000601f19601f8301169050919050565b7f4e487b7100000000000000000000000000000000000000000000000000000000600052604160045260246000fd5b620001ac8262000161565b810181811067ffffffffffffffff82111715620001ce57620001cd62000172565b5b80604052505050565b6000620001e362000143565b9050620001f18282620001a1565b919050565b600067ffffffffffffffff82111562000214576200021362000172565b5b6200021f8262000161565b9050602081019050919050565b60005b838110156200024c5780820151818401526020810190506200022f565b838111156200025c576000848401525b50505050565b6000620002796200027384620001f6565b620001d7565b9050828152602081018484840111156200029857620002976200015c565b5b620002a58482856200022c565b509392505050565b600082601f830112620002c557620002c462000157565b5b8151620002d784826020860162000262565b91505092915050565b600080600060608486031215620002fc57620002fb6200014d565b5b600084015167ffffffffffffffff8111156200031d576200031c62000152565b5b6200032b86828701620002ad565b935050602084015167ffffffffffffffff8111156200034f576200034e62000152565b5b6200035d86828701620002ad565b925050604084015167ffffffffffffffff81111562000381576200038062000152565b5b6200038f86828701620002ad565b9150509250925092565b7f4e487b7100000000000000000000000000000000000000000000000000000000600052602260045260246000fd5b60006002820490506001821680620003e157607f821691505b602082108103620003f757620003f662000399565b5b50919050565b61154d806200040d6000396000f3fe608060405234801561001057600080fd5b50600436106100a95760003560e01c8063825f787211610071578063825f787214610142578063b30906d414610160578063b7b1606a14610192578063bb337152146101b0578063ded7af17146101ce578063e7a9f27f146101ec576100a9565b80630897a549146100ae57806317674544146100cc57806317be85c3146100e85780632e3344521461010657806363ffab3114610124575b600080fd5b6100b6610208565b6040516100c39190610c8f565b60405180910390f35b6100e660048036038101906100e19190610dfa565b61029a565b005b6100f061044a565b6040516100fd9190610f4f565b60405180910390f35b61010e610549565b60405161011b9190610c8f565b60405180910390f35b61012c6105db565b6040516101399190610c8f565b60405180910390f35b61014a610669565b6040516101579190610f8a565b60405180910390f35b61017a60048036038101906101759190610fd1565b61066f565b60405161018993929190610ffe565b60405180910390f35b61019a610831565b6040516101a79190610c8f565b60405180910390f35b6101b86108bf565b6040516101c59190610c8f565b60405180910390f35b6101d6610951565b6040516101e39190610c8f565b60405180910390f35b6102066004803603810190610201919061104a565b6109df565b005b60606003805461021790611120565b80601f016020809104026020016040519081016040528092919081815260200182805461024390611120565b80156102905780601f1061026557610100808354040283529160200191610290565b820191906000526020600020905b81548152906001019060200180831161027357829003601f168201915b5050505050905090565b60005b60025481101561040b57816040516020016102b8919061118d565b60405160208183030381529060405280519060200120600460008381526020019081526020016000206002016040516020016102f49190611238565b60405160208183030381529060405280519060200120036103f85760046000828152602001908152602001600020600080820160006103339190610a86565b6001820160006103439190610a86565b6002820160006103539190610a86565b5050600460006002600081546103689061127e565b91905081905581526020019081526020016000206004600083815260200190815260200160002060008201816000019080546103a390611120565b6103ae929190610ac6565b5060018201816001019080546103c390611120565b6103ce929190610ac6565b5060028201816002019080546103e390611120565b6103ee929190610ac6565b5090505050610447565b8080610403906112a7565b91505061029d565b506040517f08c379a000000000000000000000000000000000000000000000000000000000815260040161043e9061133b565b60405180910390fd5b50565b6060600060025467ffffffffffffffff81111561046a57610469610ccf565b5b60405190808252806020026020018201604052801561049d57816020015b60608152602001906001900390816104885790505b50905060005b600254811015610541576004600082815260200190815260200160002060000160046000838152602001908152602001600020600101600460008481526020019081526020016000206002016040516020016105019392919061148b565b604051602081830303815290604052828281518110610523576105226114e8565b5b60200260200101819052508080610539906112a7565b9150506104a3565b508091505090565b60606000805461055890611120565b80601f016020809104026020016040519081016040528092919081815260200182805461058490611120565b80156105d15780601f106105a6576101008083540402835291602001916105d1565b820191906000526020600020905b8154815290600101906020018083116105b457829003601f168201915b5050505050905090565b600080546105e890611120565b80601f016020809104026020016040519081016040528092919081815260200182805461061490611120565b80156106615780601f1061063657610100808354040283529160200191610661565b820191906000526020600020905b81548152906001019060200180831161064457829003601f168201915b505050505081565b60025481565b600460205280600052604060002060009150905080600001805461069290611120565b80601f01602080910402602001604051908101604052809291908181526020018280546106be90611120565b801561070b5780601f106106e05761010080835404028352916020019161070b565b820191906000526020600020905b8154815290600101906020018083116106ee57829003601f168201915b50505050509080600101805461072090611120565b80601f016020809104026020016040519081016040528092919081815260200182805461074c90611120565b80156107995780601f1061076e57610100808354040283529160200191610799565b820191906000526020600020905b81548152906001019060200180831161077c57829003601f168201915b5050505050908060020180546107ae90611120565b80601f01602080910402602001604051908101604052809291908181526020018280546107da90611120565b80156108275780601f106107fc57610100808354040283529160200191610827565b820191906000526020600020905b81548152906001019060200180831161080a57829003601f168201915b5050505050905083565b6001805461083e90611120565b80601f016020809104026020016040519081016040528092919081815260200182805461086a90611120565b80156108b75780601f1061088c576101008083540402835291602001916108b7565b820191906000526020600020905b81548152906001019060200180831161089a57829003601f168201915b505050505081565b6060600180546108ce90611120565b80601f01602080910402602001604051908101604052809291908181526020018280546108fa90611120565b80156109475780601f1061091c57610100808354040283529160200191610947565b820191906000526020600020905b81548152906001019060200180831161092a57829003601f168201915b5050505050905090565b6003805461095e90611120565b80601f016020809104026020016040519081016040528092919081815260200182805461098a90611120565b80156109d75780601f106109ac576101008083540402835291602001916109d7565b820191906000526020600020905b8154815290600101906020018083116109ba57829003601f168201915b505050505081565b6040518060600160405280848152602001838152602001828152506004600060025481526020019081526020016000206000820151816000019080519060200190610a2b929190610b53565b506020820151816001019080519060200190610a48929190610b53565b506040820151816002019080519060200190610a65929190610b53565b5090505060026000815480929190610a7c906112a7565b9190505550505050565b508054610a9290611120565b6000825580601f10610aa45750610ac3565b601f016020900490600052602060002090810190610ac29190610bd9565b5b50565b828054610ad290611120565b90600052602060002090601f016020900481019282610af45760008555610b42565b82601f10610b055780548555610b42565b82800160010185558215610b4257600052602060002091601f016020900482015b82811115610b41578254825591600101919060010190610b26565b5b509050610b4f9190610bd9565b5090565b828054610b5f90611120565b90600052602060002090601f016020900481019282610b815760008555610bc8565b82601f10610b9a57805160ff1916838001178555610bc8565b82800160010185558215610bc8579182015b82811115610bc7578251825591602001919060010190610bac565b5b509050610bd59190610bd9565b5090565b5b80821115610bf2576000816000905550600101610bda565b5090565b600081519050919050565b600082825260208201905092915050565b60005b83811015610c30578082015181840152602081019050610c15565b83811115610c3f576000848401525b50505050565b6000601f19601f8301169050919050565b6000610c6182610bf6565b610c6b8185610c01565b9350610c7b818560208601610c12565b610c8481610c45565b840191505092915050565b60006020820190508181036000830152610ca98184610c56565b905092915050565b6000604051905090565b600080fd5b600080fd5b600080fd5b600080fd5b7f4e487b7100000000000000000000000000000000000000000000000000000000600052604160045260246000fd5b610d0782610c45565b810181811067ffffffffffffffff82111715610d2657610d25610ccf565b5b80604052505050565b6000610d39610cb1565b9050610d458282610cfe565b919050565b600067ffffffffffffffff821115610d6557610d64610ccf565b5b610d6e82610c45565b9050602081019050919050565b82818337600083830152505050565b6000610d9d610d9884610d4a565b610d2f565b905082815260208101848484011115610db957610db8610cca565b5b610dc4848285610d7b565b509392505050565b600082601f830112610de157610de0610cc5565b5b8135610df1848260208601610d8a565b91505092915050565b600060208284031215610e1057610e0f610cbb565b5b600082013567ffffffffffffffff811115610e2e57610e2d610cc0565b5b610e3a84828501610dcc565b91505092915050565b600081519050919050565b600082825260208201905092915050565b6000819050602082019050919050565b600082825260208201905092915050565b6000610e8b82610bf6565b610e958185610e6f565b9350610ea5818560208601610c12565b610eae81610c45565b840191505092915050565b6000610ec58383610e80565b905092915050565b6000602082019050919050565b6000610ee582610e43565b610eef8185610e4e565b935083602082028501610f0185610e5f565b8060005b85811015610f3d5784840389528151610f1e8582610eb9565b9450610f2983610ecd565b925060208a01995050600181019050610f05565b50829750879550505050505092915050565b60006020820190508181036000830152610f698184610eda565b905092915050565b6000819050919050565b610f8481610f71565b82525050565b6000602082019050610f9f6000830184610f7b565b92915050565b610fae81610f71565b8114610fb957600080fd5b50565b600081359050610fcb81610fa5565b92915050565b600060208284031215610fe757610fe6610cbb565b5b6000610ff584828501610fbc565b91505092915050565b600060608201905081810360008301526110188186610c56565b9050818103602083015261102c8185610c56565b905081810360408301526110408184610c56565b9050949350505050565b60008060006060848603121561106357611062610cbb565b5b600084013567ffffffffffffffff81111561108157611080610cc0565b5b61108d86828701610dcc565b935050602084013567ffffffffffffffff8111156110ae576110ad610cc0565b5b6110ba86828701610dcc565b925050604084013567ffffffffffffffff8111156110db576110da610cc0565b5b6110e786828701610dcc565b9150509250925092565b7f4e487b7100000000000000000000000000000000000000000000000000000000600052602260045260246000fd5b6000600282049050600182168061113857607f821691505b60208210810361114b5761114a6110f1565b5b50919050565b600081905092915050565b600061116782610bf6565b6111718185611151565b9350611181818560208601610c12565b80840191505092915050565b6000611199828461115c565b915081905092915050565b60008190508160005260206000209050919050565b600081546111c681611120565b6111d08186611151565b945060018216600081146111eb57600181146111fc5761122f565b60ff1983168652818601935061122f565b611205856111a4565b60005b8381101561122757815481890152600182019150602081019050611208565b838801955050505b50505092915050565b600061124482846111b9565b915081905092915050565b7f4e487b7100000000000000000000000000000000000000000000000000000000600052601160045260246000fd5b600061128982610f71565b91506000820361129c5761129b61124f565b5b600182039050919050565b60006112b282610f71565b91507fffffffffffffffffffffffffffffffffffffffffffffffffffffffffffffffff82036112e4576112e361124f565b5b600182019050919050565b7f456e747279206e6f7420666f756e640000000000000000000000000000000000600082015250565b6000611325600f83610c01565b9150611330826112ef565b602082019050919050565b6000602082019050818103600083015261135481611318565b9050919050565b7f7b22656e6372797074656444617461223a220000000000000000000000000000600082015250565b6000611391601283611151565b915061139c8261135b565b601282019050919050565b7f222c20227369676e6174757265223a2200000000000000000000000000000000600082015250565b60006113dd601083611151565b91506113e8826113a7565b601082019050919050565b7f222c2022656d706c6f7965725075626c69634b6579223a220000000000000000600082015250565b6000611429601883611151565b9150611434826113f3565b601882019050919050565b7f227d000000000000000000000000000000000000000000000000000000000000600082015250565b6000611475600283611151565b91506114808261143f565b600282019050919050565b600061149682611384565b91506114a282866111b9565b91506114ad826113d0565b91506114b982856111b9565b91506114c48261141c565b91506114d082846111b9565b91506114db82611468565b9150819050949350505050565b7f4e487b7100000000000000000000000000000000000000000000000000000000600052603260045260246000fdfea2646970667358221220f96f145a7cb87b4188a6e25f11a2b5595d98fa261d9ed8314b2d0dbca2971b4f64736f6c634300080d0033",
  "immutableReferences": {},
  "source": "//SPDX-License-Identifier: MIT \r\npragma solidity ^0.8.13;\r\n\r\ncontract StudentSkills{\r\n    string public publicKey;\r\n    string public hashedData;\r\n    uint256 public numberOfEntries;\r\n    string public signaturePublicKey; \r\n\r\n    struct Entry {\r\n        string encryptedData; //Might have to make an extra Entry for signatures\r\n        string signature;\r\n        string employerPublicKey;\r\n\r\n    }\r\n\r\n    mapping(uint256 => Entry) public entries;\r\n\r\n    constructor(string memory newPublicKey, string memory newHashedData, string memory newSignaturePublicKey){\r\n        publicKey = newPublicKey;\r\n        hashedData = newHashedData;\r\n        signaturePublicKey = newSignaturePublicKey;\r\n        numberOfEntries = 0;\r\n    }\r\n\r\n    function addEntry(string memory newEncryptedData, string memory newSignature, string memory newEmployerPublicKey) public {\r\n        entries[numberOfEntries] = Entry(newEncryptedData, newSignature, newEmployerPublicKey);\r\n        numberOfEntries++;\r\n    }\r\n\r\n    function deleteEntry(string memory employerPublicKey) public {\r\n            for (uint256 i = 0; i < numberOfEntries; i++) {\r\n                if (keccak256(abi.encodePacked(entries[i].employerPublicKey)) == keccak256(abi.encodePacked(employerPublicKey))) {\r\n                    delete entries[i];\r\n                    // Move the last entry to the deleted index and decrement the count\r\n                    entries[i] = entries[--numberOfEntries];\r\n                    return;\r\n                }\r\n            }\r\n            revert(\"Entry not found\");\r\n    }\r\n\r\n    function getEntries() public view returns (string[] memory) {\r\n        string[] memory dataList = new string[](numberOfEntries);\r\n        for (uint256 i = 0; i < numberOfEntries; i++) {\r\n            dataList[i] = string(abi.encodePacked(\r\n            '{\"encryptedData\":\"', entries[i].encryptedData,\r\n            '\", \"signature\":\"', entries[i].signature,\r\n            '\", \"employerPublicKey\":\"', entries[i].employerPublicKey,\r\n            '\"}'));\r\n        }\r\n        return dataList;\r\n    }\r\n    function getPublicKey() public view returns (string memory){\r\n        return publicKey;\r\n    }\r\n    \r\n    function getSignaturePublicKey() public view returns (string memory){\r\n        return signaturePublicKey;\r\n    }    \r\n\r\n\r\n    function getHashedData() public view returns (string memory){\r\n        return hashedData;\r\n    }\r\n}\r\n",
  "sourcePath": "C:\\Users\\Amos\\Documents\\UNI\\IFQ711\\projects\\githubImport\\web-api\\src\\BlockchainServer\\contracts\\StudentSkills.sol",
  "compiler": {
    "name": "solc",
    "version": "0.8.13+commit.abaa5c0e.Emscripten.clang"
  },
  "schemaVersion": "3.4.16",
  "updatedAt": "2024-05-22T01:35:17.226Z",
  "devdoc": {
    "kind": "dev",
    "methods": {},
    "version": 1
  },
  "userdoc": {
    "kind": "user",
    "methods": {},
    "version": 1
  }
}