{
  "contractName": "StudentSkills",
  "abi": [
    {
      "inputs": [
        {
          "internalType": "string",
          "name": "newPublicKey",
          "type": "string"
        },
        {
          "internalType": "string",
          "name": "newHashedData",
          "type": "string"
        },
        {
          "internalType": "string",
          "name": "newSignaturePublicKey",
          "type": "string"
        }
      ],
      "stateMutability": "nonpayable",
      "type": "constructor"
    },
    {
      "inputs": [
        {
          "internalType": "uint256",
          "name": "",
          "type": "uint256"
        }
      ],
      "name": "entries",
      "outputs": [
        {
          "internalType": "string",
          "name": "encryptedData",
          "type": "string"
        },
        {
          "internalType": "string",
          "name": "signature",
          "type": "string"
        },
        {
          "internalType": "string",
          "name": "employerPublicKey",
          "type": "string"
        },
        {
          "internalType": "string",
          "name": "encryptedSymmetricKey",
          "type": "string"
        }
      ],
      "stateMutability": "view",
      "type": "function"
    },
    {
      "inputs": [],
      "name": "hashedData",
      "outputs": [
        {
          "internalType": "string",
          "name": "",
          "type": "string"
        }
      ],
      "stateMutability": "view",
      "type": "function"
    },
    {
      "inputs": [],
      "name": "numberOfEntries",
      "outputs": [
        {
          "internalType": "uint256",
          "name": "",
          "type": "uint256"
        }
      ],
      "stateMutability": "view",
      "type": "function"
    },
    {
      "inputs": [],
      "name": "publicKey",
      "outputs": [
        {
          "internalType": "string",
          "name": "",
          "type": "string"
        }
      ],
      "stateMutability": "view",
      "type": "function"
    },
    {
      "inputs": [],
      "name": "signaturePublicKey",
      "outputs": [
        {
          "internalType": "string",
          "name": "",
          "type": "string"
        }
      ],
      "stateMutability": "view",
      "type": "function"
    },
    {
      "inputs": [
        {
          "internalType": "string",
          "name": "newEncryptedData",
          "type": "string"
        },
        {
          "internalType": "string",
          "name": "newSignature",
          "type": "string"
        },
        {
          "internalType": "string",
          "name": "newEmployerPublicKey",
          "type": "string"
        },
        {
          "internalType": "string",
          "name": "newEncryptedSymmetricKey",
          "type": "string"
        }
      ],
      "name": "addEntry",
      "outputs": [],
      "stateMutability": "nonpayable",
      "type": "function"
    },
    {
      "inputs": [
        {
          "internalType": "string",
          "name": "employerPublicKey",
          "type": "string"
        }
      ],
      "name": "deleteEntry",
      "outputs": [],
      "stateMutability": "nonpayable",
      "type": "function"
    },
    {
      "inputs": [],
      "name": "getEntries",
      "outputs": [
        {
          "internalType": "string[]",
          "name": "",
          "type": "string[]"
        }
      ],
      "stateMutability": "view",
      "type": "function"
    },
    {
      "inputs": [],
      "name": "getPublicKey",
      "outputs": [
        {
          "internalType": "string",
          "name": "",
          "type": "string"
        }
      ],
      "stateMutability": "view",
      "type": "function"
    },
    {
      "inputs": [],
      "name": "getSignaturePublicKey",
      "outputs": [
        {
          "internalType": "string",
          "name": "",
          "type": "string"
        }
      ],
      "stateMutability": "view",
      "type": "function"
    },
    {
      "inputs": [],
      "name": "getHashedData",
      "outputs": [
        {
          "internalType": "string",
          "name": "",
          "type": "string"
        }
      ],
      "stateMutability": "view",
      "type": "function"
    }
  ],
  "bytecode": "0x60806040523480156200001157600080fd5b5060405162001afd38038062001afd8339818101604052810190620000379190620002e0565b82600090805190602001906200004f92919062000093565b5081600190805190602001906200006892919062000093565b5080600390805190602001906200008192919062000093565b506000600281905550505050620003fd565b828054620000a190620003c8565b90600052602060002090601f016020900481019282620000c5576000855562000111565b82601f10620000e057805160ff191683800117855562000111565b8280016001018555821562000111579182015b8281111562000110578251825591602001919060010190620000f3565b5b50905062000120919062000124565b5090565b5b808211156200013f57600081600090555060010162000125565b5090565b6000604051905090565b600080fd5b600080fd5b600080fd5b600080fd5b6000601f19601f8301169050919050565b7f4e487b7100000000000000000000000000000000000000000000000000000000600052604160045260246000fd5b620001ac8262000161565b810181811067ffffffffffffffff82111715620001ce57620001cd62000172565b5b80604052505050565b6000620001e362000143565b9050620001f18282620001a1565b919050565b600067ffffffffffffffff82111562000214576200021362000172565b5b6200021f8262000161565b9050602081019050919050565b60005b838110156200024c5780820151818401526020810190506200022f565b838111156200025c576000848401525b50505050565b6000620002796200027384620001f6565b620001d7565b9050828152602081018484840111156200029857620002976200015c565b5b620002a58482856200022c565b509392505050565b600082601f830112620002c557620002c462000157565b5b8151620002d784826020860162000262565b91505092915050565b600080600060608486031215620002fc57620002fb6200014d565b5b600084015167ffffffffffffffff8111156200031d576200031c62000152565b5b6200032b86828701620002ad565b935050602084015167ffffffffffffffff8111156200034f576200034e62000152565b5b6200035d86828701620002ad565b925050604084015167ffffffffffffffff81111562000381576200038062000152565b5b6200038f86828701620002ad565b9150509250925092565b7f4e487b7100000000000000000000000000000000000000000000000000000000600052602260045260246000fd5b60006002820490506001821680620003e157607f821691505b602082108103620003f757620003f662000399565b5b50919050565b6116f0806200040d6000396000f3fe608060405234801561001057600080fd5b50600436106100a95760003560e01c806363ffab311161007157806363ffab3114610140578063825f78721461015e578063b30906d41461017c578063b7b1606a146101af578063bb337152146101cd578063ded7af17146101eb576100a9565b80630897a549146100ae57806317674544146100cc57806317be85c3146100e85780632e334452146101065780635d273a7414610124575b600080fd5b6100b6610209565b6040516100c39190610d89565b60405180910390f35b6100e660048036038101906100e19190610ef4565b61029b565b005b6100f061047b565b6040516100fd9190611049565b60405180910390f35b61010e610591565b60405161011b9190610d89565b60405180910390f35b61013e6004803603810190610139919061106b565b610623565b005b6101486106ee565b6040516101559190610d89565b60405180910390f35b61016661077c565b604051610173919061115b565b60405180910390f35b610196600480360381019061019191906111a2565b610782565b6040516101a694939291906111cf565b60405180910390f35b6101b76109d2565b6040516101c49190610d89565b60405180910390f35b6101d5610a60565b6040516101e29190610d89565b60405180910390f35b6101f3610af2565b6040516102009190610d89565b60405180910390f35b6060600380546102189061125f565b80601f01602080910402602001604051908101604052809291908181526020018280546102449061125f565b80156102915780601f1061026657610100808354040283529160200191610291565b820191906000526020600020905b81548152906001019060200180831161027457829003601f168201915b5050505050905090565b60005b60025481101561043c57816040516020016102b991906112cc565b60405160208183030381529060405280519060200120600460008381526020019081526020016000206002016040516020016102f59190611377565b60405160208183030381529060405280519060200120036104295760046000828152602001908152602001600020600080820160006103349190610b80565b6001820160006103449190610b80565b6002820160006103549190610b80565b6003820160006103649190610b80565b505060046000600260008154610379906113bd565b91905081905581526020019081526020016000206004600083815260200190815260200160002060008201816000019080546103b49061125f565b6103bf929190610bc0565b5060018201816001019080546103d49061125f565b6103df929190610bc0565b5060028201816002019080546103f49061125f565b6103ff929190610bc0565b5060038201816003019080546104149061125f565b61041f929190610bc0565b5090505050610478565b8080610434906113e6565b91505061029e565b506040517f08c379a000000000000000000000000000000000000000000000000000000000815260040161046f9061147a565b60405180910390fd5b50565b6060600060025467ffffffffffffffff81111561049b5761049a610dc9565b5b6040519080825280602002602001820160405280156104ce57816020015b60608152602001906001900390816104b95790505b50905060005b60025481101561058957600460008281526020019081526020016000206000016004600083815260200190815260200160002060010160046000848152602001908152602001600020600201600460008581526020019081526020016000206003016040516020016105499493929190611616565b60405160208183030381529060405282828151811061056b5761056a61168b565b5b60200260200101819052508080610581906113e6565b9150506104d4565b508091505090565b6060600080546105a09061125f565b80601f01602080910402602001604051908101604052809291908181526020018280546105cc9061125f565b80156106195780601f106105ee57610100808354040283529160200191610619565b820191906000526020600020905b8154815290600101906020018083116105fc57829003601f168201915b5050505050905090565b6040518060800160405280858152602001848152602001838152602001828152506004600060025481526020019081526020016000206000820151816000019080519060200190610675929190610c4d565b506020820151816001019080519060200190610692929190610c4d565b5060408201518160020190805190602001906106af929190610c4d565b5060608201518160030190805190602001906106cc929190610c4d565b50905050600260008154809291906106e3906113e6565b919050555050505050565b600080546106fb9061125f565b80601f01602080910402602001604051908101604052809291908181526020018280546107279061125f565b80156107745780601f1061074957610100808354040283529160200191610774565b820191906000526020600020905b81548152906001019060200180831161075757829003601f168201915b505050505081565b60025481565b60046020528060005260406000206000915090508060000180546107a59061125f565b80601f01602080910402602001604051908101604052809291908181526020018280546107d19061125f565b801561081e5780601f106107f35761010080835404028352916020019161081e565b820191906000526020600020905b81548152906001019060200180831161080157829003601f168201915b5050505050908060010180546108339061125f565b80601f016020809104026020016040519081016040528092919081815260200182805461085f9061125f565b80156108ac5780601f10610881576101008083540402835291602001916108ac565b820191906000526020600020905b81548152906001019060200180831161088f57829003601f168201915b5050505050908060020180546108c19061125f565b80601f01602080910402602001604051908101604052809291908181526020018280546108ed9061125f565b801561093a5780601f1061090f5761010080835404028352916020019161093a565b820191906000526020600020905b81548152906001019060200180831161091d57829003601f168201915b50505050509080600301805461094f9061125f565b80601f016020809104026020016040519081016040528092919081815260200182805461097b9061125f565b80156109c85780601f1061099d576101008083540402835291602001916109c8565b820191906000526020600020905b8154815290600101906020018083116109ab57829003601f168201915b5050505050905084565b600180546109df9061125f565b80601f0160208091040260200160405190810160405280929190818152602001828054610a0b9061125f565b8015610a585780601f10610a2d57610100808354040283529160200191610a58565b820191906000526020600020905b815481529060010190602001808311610a3b57829003601f168201915b505050505081565b606060018054610a6f9061125f565b80601f0160208091040260200160405190810160405280929190818152602001828054610a9b9061125f565b8015610ae85780601f10610abd57610100808354040283529160200191610ae8565b820191906000526020600020905b815481529060010190602001808311610acb57829003601f168201915b5050505050905090565b60038054610aff9061125f565b80601f0160208091040260200160405190810160405280929190818152602001828054610b2b9061125f565b8015610b785780601f10610b4d57610100808354040283529160200191610b78565b820191906000526020600020905b815481529060010190602001808311610b5b57829003601f168201915b505050505081565b508054610b8c9061125f565b6000825580601f10610b9e5750610bbd565b601f016020900490600052602060002090810190610bbc9190610cd3565b5b50565b828054610bcc9061125f565b90600052602060002090601f016020900481019282610bee5760008555610c3c565b82601f10610bff5780548555610c3c565b82800160010185558215610c3c57600052602060002091601f016020900482015b82811115610c3b578254825591600101919060010190610c20565b5b509050610c499190610cd3565b5090565b828054610c599061125f565b90600052602060002090601f016020900481019282610c7b5760008555610cc2565b82601f10610c9457805160ff1916838001178555610cc2565b82800160010185558215610cc2579182015b82811115610cc1578251825591602001919060010190610ca6565b5b509050610ccf9190610cd3565b5090565b5b80821115610cec576000816000905550600101610cd4565b5090565b600081519050919050565b600082825260208201905092915050565b60005b83811015610d2a578082015181840152602081019050610d0f565b83811115610d39576000848401525b50505050565b6000601f19601f8301169050919050565b6000610d5b82610cf0565b610d658185610cfb565b9350610d75818560208601610d0c565b610d7e81610d3f565b840191505092915050565b60006020820190508181036000830152610da38184610d50565b905092915050565b6000604051905090565b600080fd5b600080fd5b600080fd5b600080fd5b7f4e487b7100000000000000000000000000000000000000000000000000000000600052604160045260246000fd5b610e0182610d3f565b810181811067ffffffffffffffff82111715610e2057610e1f610dc9565b5b80604052505050565b6000610e33610dab565b9050610e3f8282610df8565b919050565b600067ffffffffffffffff821115610e5f57610e5e610dc9565b5b610e6882610d3f565b9050602081019050919050565b82818337600083830152505050565b6000610e97610e9284610e44565b610e29565b905082815260208101848484011115610eb357610eb2610dc4565b5b610ebe848285610e75565b509392505050565b600082601f830112610edb57610eda610dbf565b5b8135610eeb848260208601610e84565b91505092915050565b600060208284031215610f0a57610f09610db5565b5b600082013567ffffffffffffffff811115610f2857610f27610dba565b5b610f3484828501610ec6565b91505092915050565b600081519050919050565b600082825260208201905092915050565b6000819050602082019050919050565b600082825260208201905092915050565b6000610f8582610cf0565b610f8f8185610f69565b9350610f9f818560208601610d0c565b610fa881610d3f565b840191505092915050565b6000610fbf8383610f7a565b905092915050565b6000602082019050919050565b6000610fdf82610f3d565b610fe98185610f48565b935083602082028501610ffb85610f59565b8060005b8581101561103757848403895281516110188582610fb3565b945061102383610fc7565b925060208a01995050600181019050610fff565b50829750879550505050505092915050565b600060208201905081810360008301526110638184610fd4565b905092915050565b6000806000806080858703121561108557611084610db5565b5b600085013567ffffffffffffffff8111156110a3576110a2610dba565b5b6110af87828801610ec6565b945050602085013567ffffffffffffffff8111156110d0576110cf610dba565b5b6110dc87828801610ec6565b935050604085013567ffffffffffffffff8111156110fd576110fc610dba565b5b61110987828801610ec6565b925050606085013567ffffffffffffffff81111561112a57611129610dba565b5b61113687828801610ec6565b91505092959194509250565b6000819050919050565b61115581611142565b82525050565b6000602082019050611170600083018461114c565b92915050565b61117f81611142565b811461118a57600080fd5b50565b60008135905061119c81611176565b92915050565b6000602082840312156111b8576111b7610db5565b5b60006111c68482850161118d565b91505092915050565b600060808201905081810360008301526111e98187610d50565b905081810360208301526111fd8186610d50565b905081810360408301526112118185610d50565b905081810360608301526112258184610d50565b905095945050505050565b7f4e487b7100000000000000000000000000000000000000000000000000000000600052602260045260246000fd5b6000600282049050600182168061127757607f821691505b60208210810361128a57611289611230565b5b50919050565b600081905092915050565b60006112a682610cf0565b6112b08185611290565b93506112c0818560208601610d0c565b80840191505092915050565b60006112d8828461129b565b915081905092915050565b60008190508160005260206000209050919050565b600081546113058161125f565b61130f8186611290565b9450600182166000811461132a576001811461133b5761136e565b60ff1983168652818601935061136e565b611344856112e3565b60005b8381101561136657815481890152600182019150602081019050611347565b838801955050505b50505092915050565b600061138382846112f8565b915081905092915050565b7f4e487b7100000000000000000000000000000000000000000000000000000000600052601160045260246000fd5b60006113c882611142565b9150600082036113db576113da61138e565b5b600182039050919050565b60006113f182611142565b91507fffffffffffffffffffffffffffffffffffffffffffffffffffffffffffffffff82036114235761142261138e565b5b600182019050919050565b7f456e747279206e6f7420666f756e640000000000000000000000000000000000600082015250565b6000611464600f83610cfb565b915061146f8261142e565b602082019050919050565b6000602082019050818103600083015261149381611457565b9050919050565b7f7b22656e6372797074656444617461223a220000000000000000000000000000600082015250565b60006114d0601283611290565b91506114db8261149a565b601282019050919050565b7f222c20227369676e6174757265223a2200000000000000000000000000000000600082015250565b600061151c601083611290565b9150611527826114e6565b601082019050919050565b7f222c2022656d706c6f7965725075626c69634b6579223a220000000000000000600082015250565b6000611568601883611290565b915061157382611532565b601882019050919050565b7f222c2022656e6372797074656453796d6d65747269634b6579223a2200000000600082015250565b60006115b4601c83611290565b91506115bf8261157e565b601c82019050919050565b7f227d000000000000000000000000000000000000000000000000000000000000600082015250565b6000611600600283611290565b915061160b826115ca565b600282019050919050565b6000611621826114c3565b915061162d82876112f8565b91506116388261150f565b915061164482866112f8565b915061164f8261155b565b915061165b82856112f8565b9150611666826115a7565b915061167282846112f8565b915061167d826115f3565b915081905095945050505050565b7f4e487b7100000000000000000000000000000000000000000000000000000000600052603260045260246000fdfea26469706673582212200302db9814e7a18d3f2ed4643b9818e80e18af7707e23df58a4798b30a77837f64736f6c634300080d0033",
  "immutableReferences": {},
  "source": "//SPDX-License-Identifier: MIT \r\npragma solidity ^0.8.13;\r\n\r\ncontract StudentSkills{\r\n    string public publicKey;\r\n    string public hashedData;\r\n    uint256 public numberOfEntries;\r\n    string public signaturePublicKey; \r\n\r\n    struct Entry {\r\n        string encryptedData; \r\n        string signature;\r\n        string employerPublicKey;\r\n        string encryptedSymmetricKey;\r\n    }\r\n\r\n    mapping(uint256 => Entry) public entries;\r\n\r\n    constructor(string memory newPublicKey, string memory newHashedData, string memory newSignaturePublicKey){\r\n        publicKey = newPublicKey;\r\n        hashedData = newHashedData;\r\n        signaturePublicKey = newSignaturePublicKey;\r\n        numberOfEntries = 0;\r\n    }\r\n\r\n    function addEntry(string memory newEncryptedData, string memory newSignature, string memory newEmployerPublicKey, string memory newEncryptedSymmetricKey) public {\r\n        entries[numberOfEntries] = Entry(newEncryptedData, newSignature, newEmployerPublicKey, newEncryptedSymmetricKey);\r\n        numberOfEntries++;\r\n    }\r\n\r\n    function deleteEntry(string memory employerPublicKey) public {\r\n            for (uint256 i = 0; i < numberOfEntries; i++) {\r\n                if (keccak256(abi.encodePacked(entries[i].employerPublicKey)) == keccak256(abi.encodePacked(employerPublicKey))) {\r\n                    delete entries[i];\r\n                    // Move the last entry to the deleted index and decrement the count\r\n                    entries[i] = entries[--numberOfEntries];\r\n                    return;\r\n                }\r\n            }\r\n            revert(\"Entry not found\");\r\n    }\r\n\r\n    function getEntries() public view returns (string[] memory) {\r\n        string[] memory dataList = new string[](numberOfEntries);\r\n        for (uint256 i = 0; i < numberOfEntries; i++) {\r\n            dataList[i] = string(abi.encodePacked(\r\n            '{\"encryptedData\":\"', entries[i].encryptedData,\r\n            '\", \"signature\":\"', entries[i].signature,\r\n            '\", \"employerPublicKey\":\"', entries[i].employerPublicKey,\r\n            '\", \"encryptedSymmetricKey\":\"', entries[i].encryptedSymmetricKey,\r\n            '\"}'));\r\n        }\r\n        return dataList;\r\n    }\r\n    function getPublicKey() public view returns (string memory){\r\n        return publicKey;\r\n    }\r\n    \r\n    function getSignaturePublicKey() public view returns (string memory){\r\n        return signaturePublicKey;\r\n    }    \r\n\r\n\r\n    function getHashedData() public view returns (string memory){\r\n        return hashedData;\r\n    }\r\n}\r\n",
  "sourcePath": "C:\\Users\\Amos\\Documents\\UNI\\IFQ711\\projects\\githubImport\\web-api\\src\\BlockchainServer\\contracts\\StudentSkills.sol",
  "compiler": {
    "name": "solc",
    "version": "0.8.13+commit.abaa5c0e.Emscripten.clang"
  },
  "schemaVersion": "3.4.16",
  "updatedAt": "2024-05-26T03:18:32.782Z",
  "devdoc": {
    "kind": "dev",
    "methods": {},
    "version": 1
  },
  "userdoc": {
    "kind": "user",
    "methods": {},
    "version": 1
  }
}