{
  "contractName": "StudentSkills",
  "abi": [
    {
      "inputs": [
        {
          "internalType": "string",
          "name": "newPublicKey",
          "type": "string"
        },
        {
          "internalType": "string",
          "name": "newHashedData",
          "type": "string"
        },
        {
          "internalType": "string",
          "name": "newStudentSignaturePublicKey",
          "type": "string"
        },
        {
          "internalType": "string",
          "name": "newUniversitySignaturePublicKey",
          "type": "string"
        },
        {
          "internalType": "string",
          "name": "newUniversitySignature",
          "type": "string"
        }
      ],
      "stateMutability": "nonpayable",
      "type": "constructor"
    },
    {
      "inputs": [
        {
          "internalType": "uint256",
          "name": "",
          "type": "uint256"
        }
      ],
      "name": "entries",
      "outputs": [
        {
          "internalType": "string",
          "name": "encryptedData",
          "type": "string"
        },
        {
          "internalType": "string",
          "name": "signature",
          "type": "string"
        },
        {
          "internalType": "string",
          "name": "employerPublicKey",
          "type": "string"
        },
        {
          "internalType": "string",
          "name": "encryptedSymmetricKey",
          "type": "string"
        }
      ],
      "stateMutability": "view",
      "type": "function"
    },
    {
      "inputs": [],
      "name": "hashedData",
      "outputs": [
        {
          "internalType": "string",
          "name": "",
          "type": "string"
        }
      ],
      "stateMutability": "view",
      "type": "function"
    },
    {
      "inputs": [],
      "name": "numberOfEntries",
      "outputs": [
        {
          "internalType": "uint256",
          "name": "",
          "type": "uint256"
        }
      ],
      "stateMutability": "view",
      "type": "function"
    },
    {
      "inputs": [],
      "name": "publicKey",
      "outputs": [
        {
          "internalType": "string",
          "name": "",
          "type": "string"
        }
      ],
      "stateMutability": "view",
      "type": "function"
    },
    {
      "inputs": [],
      "name": "studentSignaturePublicKey",
      "outputs": [
        {
          "internalType": "string",
          "name": "",
          "type": "string"
        }
      ],
      "stateMutability": "view",
      "type": "function"
    },
    {
      "inputs": [],
      "name": "universitySignature",
      "outputs": [
        {
          "internalType": "string",
          "name": "",
          "type": "string"
        }
      ],
      "stateMutability": "view",
      "type": "function"
    },
    {
      "inputs": [],
      "name": "universitySignaturePublicKey",
      "outputs": [
        {
          "internalType": "string",
          "name": "",
          "type": "string"
        }
      ],
      "stateMutability": "view",
      "type": "function"
    },
    {
      "inputs": [
        {
          "internalType": "string",
          "name": "newEncryptedData",
          "type": "string"
        },
        {
          "internalType": "string",
          "name": "newSignature",
          "type": "string"
        },
        {
          "internalType": "string",
          "name": "newEmployerPublicKey",
          "type": "string"
        },
        {
          "internalType": "string",
          "name": "newEncryptedSymmetricKey",
          "type": "string"
        }
      ],
      "name": "addEntry",
      "outputs": [],
      "stateMutability": "nonpayable",
      "type": "function"
    },
    {
      "inputs": [
        {
          "internalType": "string",
          "name": "employerPublicKey",
          "type": "string"
        }
      ],
      "name": "deleteEntry",
      "outputs": [],
      "stateMutability": "nonpayable",
      "type": "function"
    },
    {
      "inputs": [],
      "name": "getEntries",
      "outputs": [
        {
          "internalType": "string[]",
          "name": "",
          "type": "string[]"
        }
      ],
      "stateMutability": "view",
      "type": "function"
    },
    {
      "inputs": [],
      "name": "getPublicKey",
      "outputs": [
        {
          "internalType": "string",
          "name": "",
          "type": "string"
        }
      ],
      "stateMutability": "view",
      "type": "function"
    },
    {
      "inputs": [],
      "name": "getStudentSignaturePublicKey",
      "outputs": [
        {
          "internalType": "string",
          "name": "",
          "type": "string"
        }
      ],
      "stateMutability": "view",
      "type": "function"
    },
    {
      "inputs": [],
      "name": "getUniversitySignaturePublicKey",
      "outputs": [
        {
          "internalType": "string",
          "name": "",
          "type": "string"
        }
      ],
      "stateMutability": "view",
      "type": "function"
    },
    {
      "inputs": [],
      "name": "getUniversitySignature",
      "outputs": [
        {
          "internalType": "string",
          "name": "",
          "type": "string"
        }
      ],
      "stateMutability": "view",
      "type": "function"
    },
    {
      "inputs": [],
      "name": "getHashedData",
      "outputs": [
        {
          "internalType": "string",
          "name": "",
          "type": "string"
        }
      ],
      "stateMutability": "view",
      "type": "function"
    }
  ],
  "bytecode": "0x60806040523480156200001157600080fd5b5060405162001e9f38038062001e9f833981810160405281019062000037919062000314565b84600090805190602001906200004f929190620000c7565b50836001908051906020019062000068929190620000c7565b50826003908051906020019062000081929190620000c7565b5081600490805190602001906200009a929190620000c7565b508060059080519060200190620000b3929190620000c7565b50600060028190555050505050506200049b565b828054620000d59062000466565b90600052602060002090601f016020900481019282620000f9576000855562000145565b82601f106200011457805160ff191683800117855562000145565b8280016001018555821562000145579182015b828111156200014457825182559160200191906001019062000127565b5b50905062000154919062000158565b5090565b5b808211156200017357600081600090555060010162000159565b5090565b6000604051905090565b600080fd5b600080fd5b600080fd5b600080fd5b6000601f19601f8301169050919050565b7f4e487b7100000000000000000000000000000000000000000000000000000000600052604160045260246000fd5b620001e08262000195565b810181811067ffffffffffffffff82111715620002025762000201620001a6565b5b80604052505050565b60006200021762000177565b9050620002258282620001d5565b919050565b600067ffffffffffffffff821115620002485762000247620001a6565b5b620002538262000195565b9050602081019050919050565b60005b838110156200028057808201518184015260208101905062000263565b8381111562000290576000848401525b50505050565b6000620002ad620002a7846200022a565b6200020b565b905082815260208101848484011115620002cc57620002cb62000190565b5b620002d984828562000260565b509392505050565b600082601f830112620002f957620002f86200018b565b5b81516200030b84826020860162000296565b91505092915050565b600080600080600060a0868803121562000333576200033262000181565b5b600086015167ffffffffffffffff81111562000354576200035362000186565b5b6200036288828901620002e1565b955050602086015167ffffffffffffffff81111562000386576200038562000186565b5b6200039488828901620002e1565b945050604086015167ffffffffffffffff811115620003b857620003b762000186565b5b620003c688828901620002e1565b935050606086015167ffffffffffffffff811115620003ea57620003e962000186565b5b620003f888828901620002e1565b925050608086015167ffffffffffffffff8111156200041c576200041b62000186565b5b6200042a88828901620002e1565b9150509295509295909350565b7f4e487b7100000000000000000000000000000000000000000000000000000000600052602260045260246000fd5b600060028204905060018216806200047f57607f821691505b60208210810362000495576200049462000437565b5b50919050565b6119f480620004ab6000396000f3fe608060405234801561001057600080fd5b50600436106100f55760003560e01c80636665879911610097578063b7b1606a11610066578063b7b1606a14610255578063bb33715214610273578063e6a62a0c14610291578063fdb2395b146102af576100f5565b806366658799146101c857806380265e25146101e6578063825f787214610204578063b30906d414610222576100f5565b80632e334452116100d35780632e334452146101525780632f033275146101705780635d273a741461018e57806363ffab31146101aa576100f5565b806317674544146100fa57806317be85c31461011657806329960f0b14610134575b600080fd5b610114600480360381019061010f919061114e565b6102cd565b005b61011e6104ad565b60405161012b91906112e1565b60405180910390f35b61013c6105c3565b604051610149919061134d565b60405180910390f35b61015a610655565b604051610167919061134d565b60405180910390f35b6101786106e7565b604051610185919061134d565b60405180910390f35b6101a860048036038101906101a3919061136f565b610775565b005b6101b2610840565b6040516101bf919061134d565b60405180910390f35b6101d06108ce565b6040516101dd919061134d565b60405180910390f35b6101ee61095c565b6040516101fb919061134d565b60405180910390f35b61020c6109ee565b604051610219919061145f565b60405180910390f35b61023c600480360381019061023791906114a6565b6109f4565b60405161024c94939291906114d3565b60405180910390f35b61025d610c44565b60405161026a919061134d565b60405180910390f35b61027b610cd2565b604051610288919061134d565b60405180910390f35b610299610d64565b6040516102a6919061134d565b60405180910390f35b6102b7610df6565b6040516102c4919061134d565b60405180910390f35b60005b60025481101561046e57816040516020016102eb9190611570565b6040516020818303038152906040528051906020012060066000838152602001908152602001600020600201604051602001610327919061167b565b604051602081830303815290604052805190602001200361045b5760066000828152602001908152602001600020600080820160006103669190610e84565b6001820160006103769190610e84565b6002820160006103869190610e84565b6003820160006103969190610e84565b5050600660006002600081546103ab906116c1565b91905081905581526020019081526020016000206006600083815260200190815260200160002060008201816000019080546103e6906115b6565b6103f1929190610ec4565b506001820181600101908054610406906115b6565b610411929190610ec4565b506002820181600201908054610426906115b6565b610431929190610ec4565b506003820181600301908054610446906115b6565b610451929190610ec4565b50905050506104aa565b8080610466906116ea565b9150506102d0565b506040517f08c379a00000000000000000000000000000000000000000000000000000000081526004016104a19061177e565b60405180910390fd5b50565b6060600060025467ffffffffffffffff8111156104cd576104cc611023565b5b60405190808252806020026020018201604052801561050057816020015b60608152602001906001900390816104eb5790505b50905060005b6002548110156105bb576006600082815260200190815260200160002060000160066000838152602001908152602001600020600101600660008481526020019081526020016000206002016006600085815260200190815260200160002060030160405160200161057b949392919061191a565b60405160208183030381529060405282828151811061059d5761059c61198f565b5b602002602001018190525080806105b3906116ea565b915050610506565b508091505090565b6060600480546105d2906115b6565b80601f01602080910402602001604051908101604052809291908181526020018280546105fe906115b6565b801561064b5780601f106106205761010080835404028352916020019161064b565b820191906000526020600020905b81548152906001019060200180831161062e57829003601f168201915b5050505050905090565b606060008054610664906115b6565b80601f0160208091040260200160405190810160405280929190818152602001828054610690906115b6565b80156106dd5780601f106106b2576101008083540402835291602001916106dd565b820191906000526020600020905b8154815290600101906020018083116106c057829003601f168201915b5050505050905090565b600580546106f4906115b6565b80601f0160208091040260200160405190810160405280929190818152602001828054610720906115b6565b801561076d5780601f106107425761010080835404028352916020019161076d565b820191906000526020600020905b81548152906001019060200180831161075057829003601f168201915b505050505081565b60405180608001604052808581526020018481526020018381526020018281525060066000600254815260200190815260200160002060008201518160000190805190602001906107c7929190610f51565b5060208201518160010190805190602001906107e4929190610f51565b506040820151816002019080519060200190610801929190610f51565b50606082015181600301908051906020019061081e929190610f51565b5090505060026000815480929190610835906116ea565b919050555050505050565b6000805461084d906115b6565b80601f0160208091040260200160405190810160405280929190818152602001828054610879906115b6565b80156108c65780601f1061089b576101008083540402835291602001916108c6565b820191906000526020600020905b8154815290600101906020018083116108a957829003601f168201915b505050505081565b600380546108db906115b6565b80601f0160208091040260200160405190810160405280929190818152602001828054610907906115b6565b80156109545780601f1061092957610100808354040283529160200191610954565b820191906000526020600020905b81548152906001019060200180831161093757829003601f168201915b505050505081565b60606005805461096b906115b6565b80601f0160208091040260200160405190810160405280929190818152602001828054610997906115b6565b80156109e45780601f106109b9576101008083540402835291602001916109e4565b820191906000526020600020905b8154815290600101906020018083116109c757829003601f168201915b5050505050905090565b60025481565b6006602052806000526040600020600091509050806000018054610a17906115b6565b80601f0160208091040260200160405190810160405280929190818152602001828054610a43906115b6565b8015610a905780601f10610a6557610100808354040283529160200191610a90565b820191906000526020600020905b815481529060010190602001808311610a7357829003601f168201915b505050505090806001018054610aa5906115b6565b80601f0160208091040260200160405190810160405280929190818152602001828054610ad1906115b6565b8015610b1e5780601f10610af357610100808354040283529160200191610b1e565b820191906000526020600020905b815481529060010190602001808311610b0157829003601f168201915b505050505090806002018054610b33906115b6565b80601f0160208091040260200160405190810160405280929190818152602001828054610b5f906115b6565b8015610bac5780601f10610b8157610100808354040283529160200191610bac565b820191906000526020600020905b815481529060010190602001808311610b8f57829003601f168201915b505050505090806003018054610bc1906115b6565b80601f0160208091040260200160405190810160405280929190818152602001828054610bed906115b6565b8015610c3a5780601f10610c0f57610100808354040283529160200191610c3a565b820191906000526020600020905b815481529060010190602001808311610c1d57829003601f168201915b5050505050905084565b60018054610c51906115b6565b80601f0160208091040260200160405190810160405280929190818152602001828054610c7d906115b6565b8015610cca5780601f10610c9f57610100808354040283529160200191610cca565b820191906000526020600020905b815481529060010190602001808311610cad57829003601f168201915b505050505081565b606060018054610ce1906115b6565b80601f0160208091040260200160405190810160405280929190818152602001828054610d0d906115b6565b8015610d5a5780601f10610d2f57610100808354040283529160200191610d5a565b820191906000526020600020905b815481529060010190602001808311610d3d57829003601f168201915b5050505050905090565b606060038054610d73906115b6565b80601f0160208091040260200160405190810160405280929190818152602001828054610d9f906115b6565b8015610dec5780601f10610dc157610100808354040283529160200191610dec565b820191906000526020600020905b815481529060010190602001808311610dcf57829003601f168201915b5050505050905090565b60048054610e03906115b6565b80601f0160208091040260200160405190810160405280929190818152602001828054610e2f906115b6565b8015610e7c5780601f10610e5157610100808354040283529160200191610e7c565b820191906000526020600020905b815481529060010190602001808311610e5f57829003601f168201915b505050505081565b508054610e90906115b6565b6000825580601f10610ea25750610ec1565b601f016020900490600052602060002090810190610ec09190610fd7565b5b50565b828054610ed0906115b6565b90600052602060002090601f016020900481019282610ef25760008555610f40565b82601f10610f035780548555610f40565b82800160010185558215610f4057600052602060002091601f016020900482015b82811115610f3f578254825591600101919060010190610f24565b5b509050610f4d9190610fd7565b5090565b828054610f5d906115b6565b90600052602060002090601f016020900481019282610f7f5760008555610fc6565b82601f10610f9857805160ff1916838001178555610fc6565b82800160010185558215610fc6579182015b82811115610fc5578251825591602001919060010190610faa565b5b509050610fd39190610fd7565b5090565b5b80821115610ff0576000816000905550600101610fd8565b5090565b6000604051905090565b600080fd5b600080fd5b600080fd5b600080fd5b6000601f19601f8301169050919050565b7f4e487b7100000000000000000000000000000000000000000000000000000000600052604160045260246000fd5b61105b82611012565b810181811067ffffffffffffffff8211171561107a57611079611023565b5b80604052505050565b600061108d610ff4565b90506110998282611052565b919050565b600067ffffffffffffffff8211156110b9576110b8611023565b5b6110c282611012565b9050602081019050919050565b82818337600083830152505050565b60006110f16110ec8461109e565b611083565b90508281526020810184848401111561110d5761110c61100d565b5b6111188482856110cf565b509392505050565b600082601f83011261113557611134611008565b5b81356111458482602086016110de565b91505092915050565b60006020828403121561116457611163610ffe565b5b600082013567ffffffffffffffff81111561118257611181611003565b5b61118e84828501611120565b91505092915050565b600081519050919050565b600082825260208201905092915050565b6000819050602082019050919050565b600081519050919050565b600082825260208201905092915050565b60005b838110156111fd5780820151818401526020810190506111e2565b8381111561120c576000848401525b50505050565b600061121d826111c3565b61122781856111ce565b93506112378185602086016111df565b61124081611012565b840191505092915050565b60006112578383611212565b905092915050565b6000602082019050919050565b600061127782611197565b61128181856111a2565b935083602082028501611293856111b3565b8060005b858110156112cf57848403895281516112b0858261124b565b94506112bb8361125f565b925060208a01995050600181019050611297565b50829750879550505050505092915050565b600060208201905081810360008301526112fb818461126c565b905092915050565b600082825260208201905092915050565b600061131f826111c3565b6113298185611303565b93506113398185602086016111df565b61134281611012565b840191505092915050565b600060208201905081810360008301526113678184611314565b905092915050565b6000806000806080858703121561138957611388610ffe565b5b600085013567ffffffffffffffff8111156113a7576113a6611003565b5b6113b387828801611120565b945050602085013567ffffffffffffffff8111156113d4576113d3611003565b5b6113e087828801611120565b935050604085013567ffffffffffffffff81111561140157611400611003565b5b61140d87828801611120565b925050606085013567ffffffffffffffff81111561142e5761142d611003565b5b61143a87828801611120565b91505092959194509250565b6000819050919050565b61145981611446565b82525050565b60006020820190506114746000830184611450565b92915050565b61148381611446565b811461148e57600080fd5b50565b6000813590506114a08161147a565b92915050565b6000602082840312156114bc576114bb610ffe565b5b60006114ca84828501611491565b91505092915050565b600060808201905081810360008301526114ed8187611314565b905081810360208301526115018186611314565b905081810360408301526115158185611314565b905081810360608301526115298184611314565b905095945050505050565b600081905092915050565b600061154a826111c3565b6115548185611534565b93506115648185602086016111df565b80840191505092915050565b600061157c828461153f565b915081905092915050565b7f4e487b7100000000000000000000000000000000000000000000000000000000600052602260045260246000fd5b600060028204905060018216806115ce57607f821691505b6020821081036115e1576115e0611587565b5b50919050565b60008190508160005260206000209050919050565b60008154611609816115b6565b6116138186611534565b9450600182166000811461162e576001811461163f57611672565b60ff19831686528186019350611672565b611648856115e7565b60005b8381101561166a5781548189015260018201915060208101905061164b565b838801955050505b50505092915050565b600061168782846115fc565b915081905092915050565b7f4e487b7100000000000000000000000000000000000000000000000000000000600052601160045260246000fd5b60006116cc82611446565b9150600082036116df576116de611692565b5b600182039050919050565b60006116f582611446565b91507fffffffffffffffffffffffffffffffffffffffffffffffffffffffffffffffff820361172757611726611692565b5b600182019050919050565b7f456e747279206e6f7420666f756e640000000000000000000000000000000000600082015250565b6000611768600f83611303565b915061177382611732565b602082019050919050565b600060208201905081810360008301526117978161175b565b9050919050565b7f7b22656e6372797074656444617461223a220000000000000000000000000000600082015250565b60006117d4601283611534565b91506117df8261179e565b601282019050919050565b7f222c20227369676e6174757265223a2200000000000000000000000000000000600082015250565b6000611820601083611534565b915061182b826117ea565b601082019050919050565b7f222c2022656d706c6f7965725075626c69634b6579223a220000000000000000600082015250565b600061186c601883611534565b915061187782611836565b601882019050919050565b7f222c2022656e6372797074656453796d6d65747269634b6579223a2200000000600082015250565b60006118b8601c83611534565b91506118c382611882565b601c82019050919050565b7f227d000000000000000000000000000000000000000000000000000000000000600082015250565b6000611904600283611534565b915061190f826118ce565b600282019050919050565b6000611925826117c7565b915061193182876115fc565b915061193c82611813565b915061194882866115fc565b91506119538261185f565b915061195f82856115fc565b915061196a826118ab565b915061197682846115fc565b9150611981826118f7565b915081905095945050505050565b7f4e487b7100000000000000000000000000000000000000000000000000000000600052603260045260246000fdfea264697066735822122017cb0dcca6b526e4b9c04d92503cf5af69879bb488cae7158f2b891e72425d8a64736f6c634300080d0033",
  "immutableReferences": {},
  "source": "//SPDX-License-Identifier: MIT \r\npragma solidity ^0.8.13;\r\n\r\ncontract StudentSkills{\r\n    string public publicKey;\r\n    string public hashedData;\r\n    uint256 public numberOfEntries;\r\n    string public studentSignaturePublicKey; \r\n    string public universitySignaturePublicKey;\r\n    string public universitySignature;\r\n\r\n    struct Entry {\r\n        string encryptedData; \r\n        string signature;\r\n        string employerPublicKey;\r\n        string encryptedSymmetricKey;\r\n    }\r\n\r\n    mapping(uint256 => Entry) public entries;\r\n\r\n    constructor(string memory newPublicKey, string memory newHashedData, string memory newStudentSignaturePublicKey, string memory newUniversitySignaturePublicKey, string memory newUniversitySignature){\r\n        publicKey = newPublicKey;\r\n        hashedData = newHashedData;\r\n        studentSignaturePublicKey = newStudentSignaturePublicKey;\r\n        universitySignaturePublicKey = newUniversitySignaturePublicKey;\r\n        universitySignature = newUniversitySignature;\r\n        numberOfEntries = 0;\r\n    }\r\n\r\n    function addEntry(string memory newEncryptedData, string memory newSignature, string memory newEmployerPublicKey, string memory newEncryptedSymmetricKey) public {\r\n        entries[numberOfEntries] = Entry(newEncryptedData, newSignature, newEmployerPublicKey, newEncryptedSymmetricKey);\r\n        numberOfEntries++;\r\n    }\r\n\r\n    function deleteEntry(string memory employerPublicKey) public {\r\n            for (uint256 i = 0; i < numberOfEntries; i++) {\r\n                if (keccak256(abi.encodePacked(entries[i].employerPublicKey)) == keccak256(abi.encodePacked(employerPublicKey))) {\r\n                    delete entries[i];\r\n                    // Move the last entry to the deleted index and decrement the count\r\n                    entries[i] = entries[--numberOfEntries];\r\n                    return;\r\n                }\r\n            }\r\n            revert(\"Entry not found\");\r\n    }\r\n\r\n    function getEntries() public view returns (string[] memory) {\r\n        string[] memory dataList = new string[](numberOfEntries);\r\n        for (uint256 i = 0; i < numberOfEntries; i++) {\r\n            dataList[i] = string(abi.encodePacked(\r\n            '{\"encryptedData\":\"', entries[i].encryptedData,\r\n            '\", \"signature\":\"', entries[i].signature,\r\n            '\", \"employerPublicKey\":\"', entries[i].employerPublicKey,\r\n            '\", \"encryptedSymmetricKey\":\"', entries[i].encryptedSymmetricKey,\r\n            '\"}'));\r\n        }\r\n        return dataList;\r\n    }\r\n    function getPublicKey() public view returns (string memory){\r\n        return publicKey;\r\n    }\r\n    \r\n    function getStudentSignaturePublicKey() public view returns (string memory){\r\n        return studentSignaturePublicKey;\r\n    }    \r\n\r\n    function getUniversitySignaturePublicKey() public view returns (string memory){\r\n        return universitySignaturePublicKey;\r\n    }    \r\n\r\n    function getUniversitySignature() public view returns (string memory){\r\n        return universitySignature;\r\n    }    \r\n\r\n    function getHashedData() public view returns (string memory){\r\n        return hashedData;\r\n    }\r\n}\r\n",
  "sourcePath": "C:\\Users\\Amos\\Documents\\UNI\\IFQ711\\projects\\githubImport\\react-frontend\\src\\BlockchainServer\\contracts\\StudentSkills.sol",
  "compiler": {
    "name": "solc",
    "version": "0.8.13+commit.abaa5c0e.Emscripten.clang"
  },
  "schemaVersion": "3.4.16",
  "updatedAt": "2024-06-17T02:14:51.368Z",
  "devdoc": {
    "kind": "dev",
    "methods": {},
    "version": 1
  },
  "userdoc": {
    "kind": "user",
    "methods": {},
    "version": 1
  }
}