{
  "contractName": "StudentSkills",
  "abi": [
    {
      "inputs": [
        {
          "internalType": "string",
          "name": "newPublicKey",
          "type": "string"
        },
        {
          "internalType": "string",
          "name": "newHashedData",
          "type": "string"
        },
        {
          "internalType": "string",
          "name": "newStudentSignaturePublicKey",
          "type": "string"
        },
        {
          "internalType": "string",
          "name": "newUniversitySignaturePublicKey",
          "type": "string"
        },
        {
          "internalType": "string",
          "name": "newUniversitySignature",
          "type": "string"
        },
        {
          "internalType": "string",
          "name": "newCID",
          "type": "string"
        }
      ],
      "stateMutability": "nonpayable",
      "type": "constructor"
    },
    {
      "inputs": [],
      "name": "CID",
      "outputs": [
        {
          "internalType": "string",
          "name": "",
          "type": "string"
        }
      ],
      "stateMutability": "view",
      "type": "function"
    },
    {
      "inputs": [
        {
          "internalType": "uint256",
          "name": "",
          "type": "uint256"
        }
      ],
      "name": "entries",
      "outputs": [
        {
          "internalType": "string",
          "name": "encryptedData",
          "type": "string"
        },
        {
          "internalType": "string",
          "name": "signature",
          "type": "string"
        },
        {
          "internalType": "string",
          "name": "employerPublicKey",
          "type": "string"
        },
        {
          "internalType": "string",
          "name": "encryptedSymmetricKey",
          "type": "string"
        }
      ],
      "stateMutability": "view",
      "type": "function"
    },
    {
      "inputs": [],
      "name": "hashedData",
      "outputs": [
        {
          "internalType": "string",
          "name": "",
          "type": "string"
        }
      ],
      "stateMutability": "view",
      "type": "function"
    },
    {
      "inputs": [],
      "name": "numberOfEntries",
      "outputs": [
        {
          "internalType": "uint256",
          "name": "",
          "type": "uint256"
        }
      ],
      "stateMutability": "view",
      "type": "function"
    },
    {
      "inputs": [],
      "name": "publicKey",
      "outputs": [
        {
          "internalType": "string",
          "name": "",
          "type": "string"
        }
      ],
      "stateMutability": "view",
      "type": "function"
    },
    {
      "inputs": [],
      "name": "studentSignaturePublicKey",
      "outputs": [
        {
          "internalType": "string",
          "name": "",
          "type": "string"
        }
      ],
      "stateMutability": "view",
      "type": "function"
    },
    {
      "inputs": [],
      "name": "universitySignature",
      "outputs": [
        {
          "internalType": "string",
          "name": "",
          "type": "string"
        }
      ],
      "stateMutability": "view",
      "type": "function"
    },
    {
      "inputs": [],
      "name": "universitySignaturePublicKey",
      "outputs": [
        {
          "internalType": "string",
          "name": "",
          "type": "string"
        }
      ],
      "stateMutability": "view",
      "type": "function"
    },
    {
      "inputs": [
        {
          "internalType": "string",
          "name": "newEncryptedData",
          "type": "string"
        },
        {
          "internalType": "string",
          "name": "newSignature",
          "type": "string"
        },
        {
          "internalType": "string",
          "name": "newEmployerPublicKey",
          "type": "string"
        },
        {
          "internalType": "string",
          "name": "newEncryptedSymmetricKey",
          "type": "string"
        }
      ],
      "name": "addEntry",
      "outputs": [],
      "stateMutability": "nonpayable",
      "type": "function"
    },
    {
      "inputs": [
        {
          "internalType": "string",
          "name": "employerPublicKey",
          "type": "string"
        }
      ],
      "name": "deleteEntry",
      "outputs": [],
      "stateMutability": "nonpayable",
      "type": "function"
    },
    {
      "inputs": [],
      "name": "getEntries",
      "outputs": [
        {
          "internalType": "string[]",
          "name": "",
          "type": "string[]"
        }
      ],
      "stateMutability": "view",
      "type": "function"
    },
    {
      "inputs": [],
      "name": "getPublicKey",
      "outputs": [
        {
          "internalType": "string",
          "name": "",
          "type": "string"
        }
      ],
      "stateMutability": "view",
      "type": "function"
    },
    {
      "inputs": [],
      "name": "getStudentSignaturePublicKey",
      "outputs": [
        {
          "internalType": "string",
          "name": "",
          "type": "string"
        }
      ],
      "stateMutability": "view",
      "type": "function"
    },
    {
      "inputs": [],
      "name": "getUniversitySignaturePublicKey",
      "outputs": [
        {
          "internalType": "string",
          "name": "",
          "type": "string"
        }
      ],
      "stateMutability": "view",
      "type": "function"
    },
    {
      "inputs": [],
      "name": "getUniversitySignature",
      "outputs": [
        {
          "internalType": "string",
          "name": "",
          "type": "string"
        }
      ],
      "stateMutability": "view",
      "type": "function"
    },
    {
      "inputs": [],
      "name": "getHashedData",
      "outputs": [
        {
          "internalType": "string",
          "name": "",
          "type": "string"
        }
      ],
      "stateMutability": "view",
      "type": "function"
    },
    {
      "inputs": [],
      "name": "getCID",
      "outputs": [
        {
          "internalType": "string",
          "name": "",
          "type": "string"
        }
      ],
      "stateMutability": "view",
      "type": "function"
    }
  ],
  "bytecode": "0x60806040523480156200001157600080fd5b506040516200205e3803806200205e83398181016040528101906200003791906200032e565b85600090805190602001906200004f929190620000e1565b50846001908051906020019062000068929190620000e1565b50836003908051906020019062000081929190620000e1565b5082600490805190602001906200009a929190620000e1565b508160059080519060200190620000b3929190620000e1565b508060069080519060200190620000cc929190620000e1565b506000600281905550505050505050620004e8565b828054620000ef90620004b3565b90600052602060002090601f0160209004810192826200011357600085556200015f565b82601f106200012e57805160ff19168380011785556200015f565b828001600101855582156200015f579182015b828111156200015e57825182559160200191906001019062000141565b5b5090506200016e919062000172565b5090565b5b808211156200018d57600081600090555060010162000173565b5090565b6000604051905090565b600080fd5b600080fd5b600080fd5b600080fd5b6000601f19601f8301169050919050565b7f4e487b7100000000000000000000000000000000000000000000000000000000600052604160045260246000fd5b620001fa82620001af565b810181811067ffffffffffffffff821117156200021c576200021b620001c0565b5b80604052505050565b60006200023162000191565b90506200023f8282620001ef565b919050565b600067ffffffffffffffff821115620002625762000261620001c0565b5b6200026d82620001af565b9050602081019050919050565b60005b838110156200029a5780820151818401526020810190506200027d565b83811115620002aa576000848401525b50505050565b6000620002c7620002c18462000244565b62000225565b905082815260208101848484011115620002e657620002e5620001aa565b5b620002f38482856200027a565b509392505050565b600082601f830112620003135762000312620001a5565b5b815162000325848260208601620002b0565b91505092915050565b60008060008060008060c087890312156200034e576200034d6200019b565b5b600087015167ffffffffffffffff8111156200036f576200036e620001a0565b5b6200037d89828a01620002fb565b965050602087015167ffffffffffffffff811115620003a157620003a0620001a0565b5b620003af89828a01620002fb565b955050604087015167ffffffffffffffff811115620003d357620003d2620001a0565b5b620003e189828a01620002fb565b945050606087015167ffffffffffffffff811115620004055762000404620001a0565b5b6200041389828a01620002fb565b935050608087015167ffffffffffffffff811115620004375762000436620001a0565b5b6200044589828a01620002fb565b92505060a087015167ffffffffffffffff811115620004695762000468620001a0565b5b6200047789828a01620002fb565b9150509295509295509295565b7f4e487b7100000000000000000000000000000000000000000000000000000000600052602260045260246000fd5b60006002820490506001821680620004cc57607f821691505b602082108103620004e257620004e162000484565b5b50919050565b611b6680620004f86000396000f3fe608060405234801561001057600080fd5b506004361061010b5760003560e01c806366658799116100a2578063b7b1606a11610071578063b7b1606a14610289578063bb337152146102a7578063c098004c146102c5578063e6a62a0c146102e3578063fdb2395b146103015761010b565b806366658799146101fc57806380265e251461021a578063825f787214610238578063b30906d4146102565761010b565b80632e334452116100de5780632e334452146101865780632f033275146101a45780635d273a74146101c257806363ffab31146101de5761010b565b806302790e3414610110578063176745441461012e57806317be85c31461014a57806329960f0b14610168575b600080fd5b61011861031f565b60405161012591906111ff565b60405180910390f35b6101486004803603810190610143919061136a565b6103b1565b005b610152610591565b60405161015f91906114bf565b60405180910390f35b6101706106a7565b60405161017d91906111ff565b60405180910390f35b61018e610739565b60405161019b91906111ff565b60405180910390f35b6101ac6107cb565b6040516101b991906111ff565b60405180910390f35b6101dc60048036038101906101d791906114e1565b610859565b005b6101e6610924565b6040516101f391906111ff565b60405180910390f35b6102046109b2565b60405161021191906111ff565b60405180910390f35b610222610a40565b60405161022f91906111ff565b60405180910390f35b610240610ad2565b60405161024d91906115d1565b60405180910390f35b610270600480360381019061026b9190611618565b610ad8565b6040516102809493929190611645565b60405180910390f35b610291610d28565b60405161029e91906111ff565b60405180910390f35b6102af610db6565b6040516102bc91906111ff565b60405180910390f35b6102cd610e48565b6040516102da91906111ff565b60405180910390f35b6102eb610ed6565b6040516102f891906111ff565b60405180910390f35b610309610f68565b60405161031691906111ff565b60405180910390f35b60606006805461032e906116d5565b80601f016020809104026020016040519081016040528092919081815260200182805461035a906116d5565b80156103a75780601f1061037c576101008083540402835291602001916103a7565b820191906000526020600020905b81548152906001019060200180831161038a57829003601f168201915b5050505050905090565b60005b60025481101561055257816040516020016103cf9190611742565b604051602081830303815290604052805190602001206007600083815260200190815260200160002060020160405160200161040b91906117ed565b604051602081830303815290604052805190602001200361053f57600760008281526020019081526020016000206000808201600061044a9190610ff6565b60018201600061045a9190610ff6565b60028201600061046a9190610ff6565b60038201600061047a9190610ff6565b50506007600060026000815461048f90611833565b91905081905581526020019081526020016000206007600083815260200190815260200160002060008201816000019080546104ca906116d5565b6104d5929190611036565b5060018201816001019080546104ea906116d5565b6104f5929190611036565b50600282018160020190805461050a906116d5565b610515929190611036565b50600382018160030190805461052a906116d5565b610535929190611036565b509050505061058e565b808061054a9061185c565b9150506103b4565b506040517f08c379a0000000000000000000000000000000000000000000000000000000008152600401610585906118f0565b60405180910390fd5b50565b6060600060025467ffffffffffffffff8111156105b1576105b061123f565b5b6040519080825280602002602001820160405280156105e457816020015b60608152602001906001900390816105cf5790505b50905060005b60025481101561069f576007600082815260200190815260200160002060000160076000838152602001908152602001600020600101600760008481526020019081526020016000206002016007600085815260200190815260200160002060030160405160200161065f9493929190611a8c565b60405160208183030381529060405282828151811061068157610680611b01565b5b602002602001018190525080806106979061185c565b9150506105ea565b508091505090565b6060600480546106b6906116d5565b80601f01602080910402602001604051908101604052809291908181526020018280546106e2906116d5565b801561072f5780601f106107045761010080835404028352916020019161072f565b820191906000526020600020905b81548152906001019060200180831161071257829003601f168201915b5050505050905090565b606060008054610748906116d5565b80601f0160208091040260200160405190810160405280929190818152602001828054610774906116d5565b80156107c15780601f10610796576101008083540402835291602001916107c1565b820191906000526020600020905b8154815290600101906020018083116107a457829003601f168201915b5050505050905090565b600580546107d8906116d5565b80601f0160208091040260200160405190810160405280929190818152602001828054610804906116d5565b80156108515780601f1061082657610100808354040283529160200191610851565b820191906000526020600020905b81548152906001019060200180831161083457829003601f168201915b505050505081565b60405180608001604052808581526020018481526020018381526020018281525060076000600254815260200190815260200160002060008201518160000190805190602001906108ab9291906110c3565b5060208201518160010190805190602001906108c89291906110c3565b5060408201518160020190805190602001906108e59291906110c3565b5060608201518160030190805190602001906109029291906110c3565b50905050600260008154809291906109199061185c565b919050555050505050565b60008054610931906116d5565b80601f016020809104026020016040519081016040528092919081815260200182805461095d906116d5565b80156109aa5780601f1061097f576101008083540402835291602001916109aa565b820191906000526020600020905b81548152906001019060200180831161098d57829003601f168201915b505050505081565b600380546109bf906116d5565b80601f01602080910402602001604051908101604052809291908181526020018280546109eb906116d5565b8015610a385780601f10610a0d57610100808354040283529160200191610a38565b820191906000526020600020905b815481529060010190602001808311610a1b57829003601f168201915b505050505081565b606060058054610a4f906116d5565b80601f0160208091040260200160405190810160405280929190818152602001828054610a7b906116d5565b8015610ac85780601f10610a9d57610100808354040283529160200191610ac8565b820191906000526020600020905b815481529060010190602001808311610aab57829003601f168201915b5050505050905090565b60025481565b6007602052806000526040600020600091509050806000018054610afb906116d5565b80601f0160208091040260200160405190810160405280929190818152602001828054610b27906116d5565b8015610b745780601f10610b4957610100808354040283529160200191610b74565b820191906000526020600020905b815481529060010190602001808311610b5757829003601f168201915b505050505090806001018054610b89906116d5565b80601f0160208091040260200160405190810160405280929190818152602001828054610bb5906116d5565b8015610c025780601f10610bd757610100808354040283529160200191610c02565b820191906000526020600020905b815481529060010190602001808311610be557829003601f168201915b505050505090806002018054610c17906116d5565b80601f0160208091040260200160405190810160405280929190818152602001828054610c43906116d5565b8015610c905780601f10610c6557610100808354040283529160200191610c90565b820191906000526020600020905b815481529060010190602001808311610c7357829003601f168201915b505050505090806003018054610ca5906116d5565b80601f0160208091040260200160405190810160405280929190818152602001828054610cd1906116d5565b8015610d1e5780601f10610cf357610100808354040283529160200191610d1e565b820191906000526020600020905b815481529060010190602001808311610d0157829003601f168201915b5050505050905084565b60018054610d35906116d5565b80601f0160208091040260200160405190810160405280929190818152602001828054610d61906116d5565b8015610dae5780601f10610d8357610100808354040283529160200191610dae565b820191906000526020600020905b815481529060010190602001808311610d9157829003601f168201915b505050505081565b606060018054610dc5906116d5565b80601f0160208091040260200160405190810160405280929190818152602001828054610df1906116d5565b8015610e3e5780601f10610e1357610100808354040283529160200191610e3e565b820191906000526020600020905b815481529060010190602001808311610e2157829003601f168201915b5050505050905090565b60068054610e55906116d5565b80601f0160208091040260200160405190810160405280929190818152602001828054610e81906116d5565b8015610ece5780601f10610ea357610100808354040283529160200191610ece565b820191906000526020600020905b815481529060010190602001808311610eb157829003601f168201915b505050505081565b606060038054610ee5906116d5565b80601f0160208091040260200160405190810160405280929190818152602001828054610f11906116d5565b8015610f5e5780601f10610f3357610100808354040283529160200191610f5e565b820191906000526020600020905b815481529060010190602001808311610f4157829003601f168201915b5050505050905090565b60048054610f75906116d5565b80601f0160208091040260200160405190810160405280929190818152602001828054610fa1906116d5565b8015610fee5780601f10610fc357610100808354040283529160200191610fee565b820191906000526020600020905b815481529060010190602001808311610fd157829003601f168201915b505050505081565b508054611002906116d5565b6000825580601f106110145750611033565b601f0160209004906000526020600020908101906110329190611149565b5b50565b828054611042906116d5565b90600052602060002090601f01602090048101928261106457600085556110b2565b82601f1061107557805485556110b2565b828001600101855582156110b257600052602060002091601f016020900482015b828111156110b1578254825591600101919060010190611096565b5b5090506110bf9190611149565b5090565b8280546110cf906116d5565b90600052602060002090601f0160209004810192826110f15760008555611138565b82601f1061110a57805160ff1916838001178555611138565b82800160010185558215611138579182015b8281111561113757825182559160200191906001019061111c565b5b5090506111459190611149565b5090565b5b8082111561116257600081600090555060010161114a565b5090565b600081519050919050565b600082825260208201905092915050565b60005b838110156111a0578082015181840152602081019050611185565b838111156111af576000848401525b50505050565b6000601f19601f8301169050919050565b60006111d182611166565b6111db8185611171565b93506111eb818560208601611182565b6111f4816111b5565b840191505092915050565b6000602082019050818103600083015261121981846111c6565b905092915050565b6000604051905090565b600080fd5b600080fd5b600080fd5b600080fd5b7f4e487b7100000000000000000000000000000000000000000000000000000000600052604160045260246000fd5b611277826111b5565b810181811067ffffffffffffffff821117156112965761129561123f565b5b80604052505050565b60006112a9611221565b90506112b5828261126e565b919050565b600067ffffffffffffffff8211156112d5576112d461123f565b5b6112de826111b5565b9050602081019050919050565b82818337600083830152505050565b600061130d611308846112ba565b61129f565b9050828152602081018484840111156113295761132861123a565b5b6113348482856112eb565b509392505050565b600082601f83011261135157611350611235565b5b81356113618482602086016112fa565b91505092915050565b6000602082840312156113805761137f61122b565b5b600082013567ffffffffffffffff81111561139e5761139d611230565b5b6113aa8482850161133c565b91505092915050565b600081519050919050565b600082825260208201905092915050565b6000819050602082019050919050565b600082825260208201905092915050565b60006113fb82611166565b61140581856113df565b9350611415818560208601611182565b61141e816111b5565b840191505092915050565b600061143583836113f0565b905092915050565b6000602082019050919050565b6000611455826113b3565b61145f81856113be565b935083602082028501611471856113cf565b8060005b858110156114ad578484038952815161148e8582611429565b94506114998361143d565b925060208a01995050600181019050611475565b50829750879550505050505092915050565b600060208201905081810360008301526114d9818461144a565b905092915050565b600080600080608085870312156114fb576114fa61122b565b5b600085013567ffffffffffffffff81111561151957611518611230565b5b6115258782880161133c565b945050602085013567ffffffffffffffff81111561154657611545611230565b5b6115528782880161133c565b935050604085013567ffffffffffffffff81111561157357611572611230565b5b61157f8782880161133c565b925050606085013567ffffffffffffffff8111156115a05761159f611230565b5b6115ac8782880161133c565b91505092959194509250565b6000819050919050565b6115cb816115b8565b82525050565b60006020820190506115e660008301846115c2565b92915050565b6115f5816115b8565b811461160057600080fd5b50565b600081359050611612816115ec565b92915050565b60006020828403121561162e5761162d61122b565b5b600061163c84828501611603565b91505092915050565b6000608082019050818103600083015261165f81876111c6565b9050818103602083015261167381866111c6565b9050818103604083015261168781856111c6565b9050818103606083015261169b81846111c6565b905095945050505050565b7f4e487b7100000000000000000000000000000000000000000000000000000000600052602260045260246000fd5b600060028204905060018216806116ed57607f821691505b602082108103611700576116ff6116a6565b5b50919050565b600081905092915050565b600061171c82611166565b6117268185611706565b9350611736818560208601611182565b80840191505092915050565b600061174e8284611711565b915081905092915050565b60008190508160005260206000209050919050565b6000815461177b816116d5565b6117858186611706565b945060018216600081146117a057600181146117b1576117e4565b60ff198316865281860193506117e4565b6117ba85611759565b60005b838110156117dc578154818901526001820191506020810190506117bd565b838801955050505b50505092915050565b60006117f9828461176e565b915081905092915050565b7f4e487b7100000000000000000000000000000000000000000000000000000000600052601160045260246000fd5b600061183e826115b8565b91506000820361185157611850611804565b5b600182039050919050565b6000611867826115b8565b91507fffffffffffffffffffffffffffffffffffffffffffffffffffffffffffffffff820361189957611898611804565b5b600182019050919050565b7f456e747279206e6f7420666f756e640000000000000000000000000000000000600082015250565b60006118da600f83611171565b91506118e5826118a4565b602082019050919050565b60006020820190508181036000830152611909816118cd565b9050919050565b7f7b22656e6372797074656444617461223a220000000000000000000000000000600082015250565b6000611946601283611706565b915061195182611910565b601282019050919050565b7f222c20227369676e6174757265223a2200000000000000000000000000000000600082015250565b6000611992601083611706565b915061199d8261195c565b601082019050919050565b7f222c2022656d706c6f7965725075626c69634b6579223a220000000000000000600082015250565b60006119de601883611706565b91506119e9826119a8565b601882019050919050565b7f222c2022656e6372797074656453796d6d65747269634b6579223a2200000000600082015250565b6000611a2a601c83611706565b9150611a35826119f4565b601c82019050919050565b7f227d000000000000000000000000000000000000000000000000000000000000600082015250565b6000611a76600283611706565b9150611a8182611a40565b600282019050919050565b6000611a9782611939565b9150611aa3828761176e565b9150611aae82611985565b9150611aba828661176e565b9150611ac5826119d1565b9150611ad1828561176e565b9150611adc82611a1d565b9150611ae8828461176e565b9150611af382611a69565b915081905095945050505050565b7f4e487b7100000000000000000000000000000000000000000000000000000000600052603260045260246000fdfea264697066735822122026f9485bc282fe3ae26d38ae6d054328753783e6480cd0044ebd814feb747a4764736f6c634300080d0033",
  "immutableReferences": {},
  "source": "//SPDX-License-Identifier: MIT \r\npragma solidity ^0.8.13;\r\n\r\ncontract StudentSkills{\r\n    string public publicKey;\r\n    string public hashedData;\r\n    uint256 public numberOfEntries;\r\n    string public studentSignaturePublicKey; \r\n    string public universitySignaturePublicKey;\r\n    string public universitySignature;\r\n    string public CID;\r\n\r\n    struct Entry {\r\n        string encryptedData; \r\n        string signature;\r\n        string employerPublicKey;\r\n        string encryptedSymmetricKey;\r\n    }\r\n\r\n    mapping(uint256 => Entry) public entries;\r\n\r\n    constructor(string memory newPublicKey, string memory newHashedData, string memory newStudentSignaturePublicKey, string memory newUniversitySignaturePublicKey, string memory newUniversitySignature, string memory newCID){\r\n        publicKey = newPublicKey;\r\n        hashedData = newHashedData;\r\n        studentSignaturePublicKey = newStudentSignaturePublicKey;\r\n        universitySignaturePublicKey = newUniversitySignaturePublicKey;\r\n        universitySignature = newUniversitySignature;\r\n        CID = newCID;\r\n        numberOfEntries = 0;\r\n    }\r\n\r\n    function addEntry(string memory newEncryptedData, string memory newSignature, string memory newEmployerPublicKey, string memory newEncryptedSymmetricKey) public {\r\n        entries[numberOfEntries] = Entry(newEncryptedData, newSignature, newEmployerPublicKey, newEncryptedSymmetricKey);\r\n        numberOfEntries++;\r\n    }\r\n\r\n    function deleteEntry(string memory employerPublicKey) public {\r\n            for (uint256 i = 0; i < numberOfEntries; i++) {\r\n                if (keccak256(abi.encodePacked(entries[i].employerPublicKey)) == keccak256(abi.encodePacked(employerPublicKey))) {\r\n                    delete entries[i];\r\n                    // Move the last entry to the deleted index and decrement the count\r\n                    entries[i] = entries[--numberOfEntries];\r\n                    return;\r\n                }\r\n            }\r\n            revert(\"Entry not found\");\r\n    }\r\n\r\n    function getEntries() public view returns (string[] memory) {\r\n        string[] memory dataList = new string[](numberOfEntries);\r\n        for (uint256 i = 0; i < numberOfEntries; i++) {\r\n            dataList[i] = string(abi.encodePacked(\r\n            '{\"encryptedData\":\"', entries[i].encryptedData,\r\n            '\", \"signature\":\"', entries[i].signature,\r\n            '\", \"employerPublicKey\":\"', entries[i].employerPublicKey,\r\n            '\", \"encryptedSymmetricKey\":\"', entries[i].encryptedSymmetricKey,\r\n            '\"}'));\r\n        }\r\n        return dataList;\r\n    }\r\n    function getPublicKey() public view returns (string memory){\r\n        return publicKey;\r\n    }\r\n    \r\n    function getStudentSignaturePublicKey() public view returns (string memory){\r\n        return studentSignaturePublicKey;\r\n    }    \r\n\r\n    function getUniversitySignaturePublicKey() public view returns (string memory){\r\n        return universitySignaturePublicKey;\r\n    }    \r\n\r\n    function getUniversitySignature() public view returns (string memory){\r\n        return universitySignature;\r\n    }    \r\n\r\n    function getHashedData() public view returns (string memory){\r\n        return hashedData;\r\n    }\r\n\r\n    function getCID() public view returns (string memory){\r\n        return CID;\r\n    }\r\n}\r\n",
  "sourcePath": "C:\\Users\\Amos\\Documents\\UNI\\IFQ711\\projects\\githubImport\\react-frontend\\src\\BlockchainServer\\contracts\\StudentSkills.sol",
  "compiler": {
    "name": "solc",
    "version": "0.8.13+commit.abaa5c0e.Emscripten.clang"
  },
  "schemaVersion": "3.4.16",
  "updatedAt": "2024-06-23T10:15:54.380Z",
  "devdoc": {
    "kind": "dev",
    "methods": {},
    "version": 1
  },
  "userdoc": {
    "kind": "user",
    "methods": {},
    "version": 1
  }
}