{
  "contractName": "StudentSkills",
  "abi": [
    {
      "inputs": [
        {
          "internalType": "string",
          "name": "newPublicKey",
          "type": "string"
        },
        {
          "internalType": "string",
          "name": "newHashedData",
          "type": "string"
        }
      ],
      "stateMutability": "nonpayable",
      "type": "constructor"
    },
    {
      "inputs": [],
      "name": "hashedData",
      "outputs": [
        {
          "internalType": "string",
          "name": "",
          "type": "string"
        }
      ],
      "stateMutability": "view",
      "type": "function"
    },
    {
      "inputs": [],
      "name": "publicKey",
      "outputs": [
        {
          "internalType": "string",
          "name": "",
          "type": "string"
        }
      ],
      "stateMutability": "view",
      "type": "function"
    },
    {
      "inputs": [],
      "name": "getPublicKey",
      "outputs": [
        {
          "internalType": "string",
          "name": "",
          "type": "string"
        }
      ],
      "stateMutability": "view",
      "type": "function"
    },
    {
      "inputs": [],
      "name": "getHashedData",
      "outputs": [
        {
          "internalType": "string",
          "name": "",
          "type": "string"
        }
      ],
      "stateMutability": "view",
      "type": "function"
    }
  ],
  "bytecode": "0x60806040523480156200001157600080fd5b5060405162000811380380620008118339818101604052810190620000379190620002be565b81600090805190602001906200004f92919062000071565b5080600190805190602001906200006892919062000071565b505050620003a7565b8280546200007f9062000372565b90600052602060002090601f016020900481019282620000a35760008555620000ef565b82601f10620000be57805160ff1916838001178555620000ef565b82800160010185558215620000ef579182015b82811115620000ee578251825591602001919060010190620000d1565b5b509050620000fe919062000102565b5090565b5b808211156200011d57600081600090555060010162000103565b5090565b6000604051905090565b600080fd5b600080fd5b600080fd5b600080fd5b6000601f19601f8301169050919050565b7f4e487b7100000000000000000000000000000000000000000000000000000000600052604160045260246000fd5b6200018a826200013f565b810181811067ffffffffffffffff82111715620001ac57620001ab62000150565b5b80604052505050565b6000620001c162000121565b9050620001cf82826200017f565b919050565b600067ffffffffffffffff821115620001f257620001f162000150565b5b620001fd826200013f565b9050602081019050919050565b60005b838110156200022a5780820151818401526020810190506200020d565b838111156200023a576000848401525b50505050565b6000620002576200025184620001d4565b620001b5565b9050828152602081018484840111156200027657620002756200013a565b5b620002838482856200020a565b509392505050565b600082601f830112620002a357620002a262000135565b5b8151620002b584826020860162000240565b91505092915050565b60008060408385031215620002d857620002d76200012b565b5b600083015167ffffffffffffffff811115620002f957620002f862000130565b5b62000307858286016200028b565b925050602083015167ffffffffffffffff8111156200032b576200032a62000130565b5b62000339858286016200028b565b9150509250929050565b7f4e487b7100000000000000000000000000000000000000000000000000000000600052602260045260246000fd5b600060028204905060018216806200038b57607f821691505b602082108103620003a157620003a062000343565b5b50919050565b61045a80620003b76000396000f3fe608060405234801561001057600080fd5b506004361061004c5760003560e01c80632e3344521461005157806363ffab311461006f578063b7b1606a1461008d578063bb337152146100ab575b600080fd5b6100596100c9565b60405161006691906103a2565b60405180910390f35b61007761015b565b60405161008491906103a2565b60405180910390f35b6100956101e9565b6040516100a291906103a2565b60405180910390f35b6100b3610277565b6040516100c091906103a2565b60405180910390f35b6060600080546100d8906103f3565b80601f0160208091040260200160405190810160405280929190818152602001828054610104906103f3565b80156101515780601f1061012657610100808354040283529160200191610151565b820191906000526020600020905b81548152906001019060200180831161013457829003601f168201915b5050505050905090565b60008054610168906103f3565b80601f0160208091040260200160405190810160405280929190818152602001828054610194906103f3565b80156101e15780601f106101b6576101008083540402835291602001916101e1565b820191906000526020600020905b8154815290600101906020018083116101c457829003601f168201915b505050505081565b600180546101f6906103f3565b80601f0160208091040260200160405190810160405280929190818152602001828054610222906103f3565b801561026f5780601f106102445761010080835404028352916020019161026f565b820191906000526020600020905b81548152906001019060200180831161025257829003601f168201915b505050505081565b606060018054610286906103f3565b80601f01602080910402602001604051908101604052809291908181526020018280546102b2906103f3565b80156102ff5780601f106102d4576101008083540402835291602001916102ff565b820191906000526020600020905b8154815290600101906020018083116102e257829003601f168201915b5050505050905090565b600081519050919050565b600082825260208201905092915050565b60005b83811015610343578082015181840152602081019050610328565b83811115610352576000848401525b50505050565b6000601f19601f8301169050919050565b600061037482610309565b61037e8185610314565b935061038e818560208601610325565b61039781610358565b840191505092915050565b600060208201905081810360008301526103bc8184610369565b905092915050565b7f4e487b7100000000000000000000000000000000000000000000000000000000600052602260045260246000fd5b6000600282049050600182168061040b57607f821691505b60208210810361041e5761041d6103c4565b5b5091905056fea264697066735822122007aa665414f7664356b0c67d35e8552789e38bfe72f43fda5f18cd11bd60905564736f6c634300080d0033",
  "immutableReferences": {},
  "source": "//SPDX-License-Identifier: MIT \r\npragma solidity ^0.8.13;\r\n\r\ncontract StudentSkills{\r\n    string public publicKey;\r\n    string public hashedData;\r\n\r\n    constructor(string memory newPublicKey, string memory newHashedData){\r\n        publicKey = newPublicKey;\r\n        hashedData = newHashedData;\r\n    }\r\n\r\n    function getPublicKey() public view returns (string memory){\r\n        return publicKey;\r\n    }\r\n\r\n    function getHashedData() public view returns (string memory){\r\n        return hashedData;\r\n    }\r\n}",
  "sourcePath": "C:\\Users\\Amos\\Documents\\UNI\\IFQ711\\projects\\studentdata\\contracts\\StudentSkills.sol",
  "compiler": {
    "name": "solc",
    "version": "0.8.13+commit.abaa5c0e.Emscripten.clang"
  },
  "schemaVersion": "3.4.16",
  "updatedAt": "2024-03-07T11:09:02.027Z",
  "devdoc": {
    "kind": "dev",
    "methods": {},
    "version": 1
  },
  "userdoc": {
    "kind": "user",
    "methods": {},
    "version": 1
  }
}