{
  "contractName": "StudentSkills",
  "abi": [
    {
      "inputs": [
        {
          "internalType": "string",
          "name": "newPublicKey",
          "type": "string"
        },
        {
          "internalType": "string",
          "name": "newHashedData",
          "type": "string"
        }
      ],
      "stateMutability": "nonpayable",
      "type": "constructor"
    },
    {
      "inputs": [
        {
          "internalType": "uint256",
          "name": "",
          "type": "uint256"
        }
      ],
      "name": "entries",
      "outputs": [
        {
          "internalType": "string",
          "name": "encryptedData",
          "type": "string"
        },
        {
          "internalType": "string",
          "name": "employerPublicKey",
          "type": "string"
        }
      ],
      "stateMutability": "view",
      "type": "function"
    },
    {
      "inputs": [],
      "name": "hashedData",
      "outputs": [
        {
          "internalType": "string",
          "name": "",
          "type": "string"
        }
      ],
      "stateMutability": "view",
      "type": "function"
    },
    {
      "inputs": [],
      "name": "numberOfEntries",
      "outputs": [
        {
          "internalType": "uint256",
          "name": "",
          "type": "uint256"
        }
      ],
      "stateMutability": "view",
      "type": "function"
    },
    {
      "inputs": [],
      "name": "publicKey",
      "outputs": [
        {
          "internalType": "string",
          "name": "",
          "type": "string"
        }
      ],
      "stateMutability": "view",
      "type": "function"
    },
    {
      "inputs": [
        {
          "internalType": "string",
          "name": "newEncryptedData",
          "type": "string"
        },
        {
          "internalType": "string",
          "name": "newEmployerPublicKey",
          "type": "string"
        }
      ],
      "name": "addEntry",
      "outputs": [],
      "stateMutability": "nonpayable",
      "type": "function"
    },
    {
      "inputs": [
        {
          "internalType": "string",
          "name": "employerPublicKey",
          "type": "string"
        }
      ],
      "name": "deleteEntry",
      "outputs": [],
      "stateMutability": "nonpayable",
      "type": "function"
    },
    {
      "inputs": [],
      "name": "getEntries",
      "outputs": [
        {
          "internalType": "string[]",
          "name": "",
          "type": "string[]"
        }
      ],
      "stateMutability": "view",
      "type": "function"
    },
    {
      "inputs": [],
      "name": "getPublicKey",
      "outputs": [
        {
          "internalType": "string",
          "name": "",
          "type": "string"
        }
      ],
      "stateMutability": "view",
      "type": "function"
    },
    {
      "inputs": [],
      "name": "getHashedData",
      "outputs": [
        {
          "internalType": "string",
          "name": "",
          "type": "string"
        }
      ],
      "stateMutability": "view",
      "type": "function"
    }
  ],
  "bytecode": "0x60806040523480156200001157600080fd5b50604051620015f8380380620015f88339818101604052810190620000379190620002c6565b81600090805190602001906200004f92919062000079565b5080600190805190602001906200006892919062000079565b5060006002819055505050620003af565b82805462000087906200037a565b90600052602060002090601f016020900481019282620000ab5760008555620000f7565b82601f10620000c657805160ff1916838001178555620000f7565b82800160010185558215620000f7579182015b82811115620000f6578251825591602001919060010190620000d9565b5b5090506200010691906200010a565b5090565b5b80821115620001255760008160009055506001016200010b565b5090565b6000604051905090565b600080fd5b600080fd5b600080fd5b600080fd5b6000601f19601f8301169050919050565b7f4e487b7100000000000000000000000000000000000000000000000000000000600052604160045260246000fd5b620001928262000147565b810181811067ffffffffffffffff82111715620001b457620001b362000158565b5b80604052505050565b6000620001c962000129565b9050620001d7828262000187565b919050565b600067ffffffffffffffff821115620001fa57620001f962000158565b5b620002058262000147565b9050602081019050919050565b60005b838110156200023257808201518184015260208101905062000215565b8381111562000242576000848401525b50505050565b60006200025f6200025984620001dc565b620001bd565b9050828152602081018484840111156200027e576200027d62000142565b5b6200028b84828562000212565b509392505050565b600082601f830112620002ab57620002aa6200013d565b5b8151620002bd84826020860162000248565b91505092915050565b60008060408385031215620002e057620002df62000133565b5b600083015167ffffffffffffffff81111562000301576200030062000138565b5b6200030f8582860162000293565b925050602083015167ffffffffffffffff81111562000333576200033262000138565b5b620003418582860162000293565b9150509250929050565b7f4e487b7100000000000000000000000000000000000000000000000000000000600052602260045260246000fd5b600060028204905060018216806200039357607f821691505b602082108103620003a957620003a86200034b565b5b50919050565b61123980620003bf6000396000f3fe608060405234801561001057600080fd5b50600436106100935760003560e01c806363ffab311161006657806363ffab311461010c578063825f78721461012a578063b30906d414610148578063b7b1606a14610179578063bb3371521461019757610093565b8063176745441461009857806317be85c3146100b45780632e334452146100d25780635ce308a7146100f0575b600080fd5b6100b260048036038101906100ad9190610ae4565b6101b5565b005b6100bc610335565b6040516100c99190610c77565b60405180910390f35b6100da61041d565b6040516100e79190610ce3565b60405180910390f35b61010a60048036038101906101059190610d05565b6104af565b005b610114610532565b6040516101219190610ce3565b60405180910390f35b6101326105c0565b60405161013f9190610d96565b60405180910390f35b610162600480360381019061015d9190610ddd565b6105c6565b604051610170929190610e0a565b60405180910390f35b6101816106fa565b60405161018e9190610ce3565b60405180910390f35b61019f610788565b6040516101ac9190610ce3565b60405180910390f35b60005b6002548110156102f657816040516020016101d39190610e7d565b604051602081830303815290604052805190602001206003600083815260200190815260200160002060010160405160200161020f9190610f88565b60405160208183030381529060405280519060200120036102e357600360008281526020019081526020016000206000808201600061024e919061081a565b60018201600061025e919061081a565b50506003600060026000815461027390610fce565b91905081905581526020019081526020016000206003600083815260200190815260200160002060008201816000019080546102ae90610ec3565b6102b992919061085a565b5060018201816001019080546102ce90610ec3565b6102d992919061085a565b5090505050610332565b80806102ee90610ff7565b9150506101b8565b506040517f08c379a00000000000000000000000000000000000000000000000000000000081526004016103299061108b565b60405180910390fd5b50565b6060600060025467ffffffffffffffff811115610355576103546109b9565b5b60405190808252806020026020018201604052801561038857816020015b60608152602001906001900390816103735790505b50905060005b6002548110156104155760036000828152602001908152602001600020600001600360008381526020019081526020016000206001016040516020016103d592919061118f565b6040516020818303038152906040528282815181106103f7576103f66111d4565b5b6020026020010181905250808061040d90610ff7565b91505061038e565b508091505090565b60606000805461042c90610ec3565b80601f016020809104026020016040519081016040528092919081815260200182805461045890610ec3565b80156104a55780601f1061047a576101008083540402835291602001916104a5565b820191906000526020600020905b81548152906001019060200180831161048857829003601f168201915b5050505050905090565b60405180604001604052808381526020018281525060036000600254815260200190815260200160002060008201518160000190805190602001906104f59291906108e7565b5060208201518160010190805190602001906105129291906108e7565b509050506002600081548092919061052990610ff7565b91905055505050565b6000805461053f90610ec3565b80601f016020809104026020016040519081016040528092919081815260200182805461056b90610ec3565b80156105b85780601f1061058d576101008083540402835291602001916105b8565b820191906000526020600020905b81548152906001019060200180831161059b57829003601f168201915b505050505081565b60025481565b60036020528060005260406000206000915090508060000180546105e990610ec3565b80601f016020809104026020016040519081016040528092919081815260200182805461061590610ec3565b80156106625780601f1061063757610100808354040283529160200191610662565b820191906000526020600020905b81548152906001019060200180831161064557829003601f168201915b50505050509080600101805461067790610ec3565b80601f01602080910402602001604051908101604052809291908181526020018280546106a390610ec3565b80156106f05780601f106106c5576101008083540402835291602001916106f0565b820191906000526020600020905b8154815290600101906020018083116106d357829003601f168201915b5050505050905082565b6001805461070790610ec3565b80601f016020809104026020016040519081016040528092919081815260200182805461073390610ec3565b80156107805780601f1061075557610100808354040283529160200191610780565b820191906000526020600020905b81548152906001019060200180831161076357829003601f168201915b505050505081565b60606001805461079790610ec3565b80601f01602080910402602001604051908101604052809291908181526020018280546107c390610ec3565b80156108105780601f106107e557610100808354040283529160200191610810565b820191906000526020600020905b8154815290600101906020018083116107f357829003601f168201915b5050505050905090565b50805461082690610ec3565b6000825580601f106108385750610857565b601f016020900490600052602060002090810190610856919061096d565b5b50565b82805461086690610ec3565b90600052602060002090601f01602090048101928261088857600085556108d6565b82601f1061089957805485556108d6565b828001600101855582156108d657600052602060002091601f016020900482015b828111156108d55782548255916001019190600101906108ba565b5b5090506108e3919061096d565b5090565b8280546108f390610ec3565b90600052602060002090601f016020900481019282610915576000855561095c565b82601f1061092e57805160ff191683800117855561095c565b8280016001018555821561095c579182015b8281111561095b578251825591602001919060010190610940565b5b509050610969919061096d565b5090565b5b8082111561098657600081600090555060010161096e565b5090565b6000604051905090565b600080fd5b600080fd5b600080fd5b600080fd5b6000601f19601f8301169050919050565b7f4e487b7100000000000000000000000000000000000000000000000000000000600052604160045260246000fd5b6109f1826109a8565b810181811067ffffffffffffffff82111715610a1057610a0f6109b9565b5b80604052505050565b6000610a2361098a565b9050610a2f82826109e8565b919050565b600067ffffffffffffffff821115610a4f57610a4e6109b9565b5b610a58826109a8565b9050602081019050919050565b82818337600083830152505050565b6000610a87610a8284610a34565b610a19565b905082815260208101848484011115610aa357610aa26109a3565b5b610aae848285610a65565b509392505050565b600082601f830112610acb57610aca61099e565b5b8135610adb848260208601610a74565b91505092915050565b600060208284031215610afa57610af9610994565b5b600082013567ffffffffffffffff811115610b1857610b17610999565b5b610b2484828501610ab6565b91505092915050565b600081519050919050565b600082825260208201905092915050565b6000819050602082019050919050565b600081519050919050565b600082825260208201905092915050565b60005b83811015610b93578082015181840152602081019050610b78565b83811115610ba2576000848401525b50505050565b6000610bb382610b59565b610bbd8185610b64565b9350610bcd818560208601610b75565b610bd6816109a8565b840191505092915050565b6000610bed8383610ba8565b905092915050565b6000602082019050919050565b6000610c0d82610b2d565b610c178185610b38565b935083602082028501610c2985610b49565b8060005b85811015610c655784840389528151610c468582610be1565b9450610c5183610bf5565b925060208a01995050600181019050610c2d565b50829750879550505050505092915050565b60006020820190508181036000830152610c918184610c02565b905092915050565b600082825260208201905092915050565b6000610cb582610b59565b610cbf8185610c99565b9350610ccf818560208601610b75565b610cd8816109a8565b840191505092915050565b60006020820190508181036000830152610cfd8184610caa565b905092915050565b60008060408385031215610d1c57610d1b610994565b5b600083013567ffffffffffffffff811115610d3a57610d39610999565b5b610d4685828601610ab6565b925050602083013567ffffffffffffffff811115610d6757610d66610999565b5b610d7385828601610ab6565b9150509250929050565b6000819050919050565b610d9081610d7d565b82525050565b6000602082019050610dab6000830184610d87565b92915050565b610dba81610d7d565b8114610dc557600080fd5b50565b600081359050610dd781610db1565b92915050565b600060208284031215610df357610df2610994565b5b6000610e0184828501610dc8565b91505092915050565b60006040820190508181036000830152610e248185610caa565b90508181036020830152610e388184610caa565b90509392505050565b600081905092915050565b6000610e5782610b59565b610e618185610e41565b9350610e71818560208601610b75565b80840191505092915050565b6000610e898284610e4c565b915081905092915050565b7f4e487b7100000000000000000000000000000000000000000000000000000000600052602260045260246000fd5b60006002820490506001821680610edb57607f821691505b602082108103610eee57610eed610e94565b5b50919050565b60008190508160005260206000209050919050565b60008154610f1681610ec3565b610f208186610e41565b94506001821660008114610f3b5760018114610f4c57610f7f565b60ff19831686528186019350610f7f565b610f5585610ef4565b60005b83811015610f7757815481890152600182019150602081019050610f58565b838801955050505b50505092915050565b6000610f948284610f09565b915081905092915050565b7f4e487b7100000000000000000000000000000000000000000000000000000000600052601160045260246000fd5b6000610fd982610d7d565b915060008203610fec57610feb610f9f565b5b600182039050919050565b600061100282610d7d565b91507fffffffffffffffffffffffffffffffffffffffffffffffffffffffffffffffff820361103457611033610f9f565b5b600182019050919050565b7f456e747279206e6f7420666f756e640000000000000000000000000000000000600082015250565b6000611075600f83610c99565b91506110808261103f565b602082019050919050565b600060208201905081810360008301526110a481611068565b9050919050565b7f7b22656e6372797074656453747564656e7444617461223a2200000000000000600082015250565b60006110e1601983610e41565b91506110ec826110ab565b601982019050919050565b7f222c2022656d706c6f7965725075626c69634b6579223a220000000000000000600082015250565b600061112d601883610e41565b9150611138826110f7565b601882019050919050565b7f227d000000000000000000000000000000000000000000000000000000000000600082015250565b6000611179600283610e41565b915061118482611143565b600282019050919050565b600061119a826110d4565b91506111a68285610f09565b91506111b182611120565b91506111bd8284610f09565b91506111c88261116c565b91508190509392505050565b7f4e487b7100000000000000000000000000000000000000000000000000000000600052603260045260246000fdfea26469706673582212201e4d8e445bf4bc25f329b7b04934981259feca05cf07827f427d5980cbaba91e64736f6c634300080d0033",
  "immutableReferences": {},
  "source": "//SPDX-License-Identifier: MIT \r\npragma solidity ^0.8.13;\r\n\r\ncontract StudentSkills{\r\n    string public publicKey;\r\n    string public hashedData;\r\n    uint256 public numberOfEntries;\r\n\r\n    struct Entry {\r\n        string encryptedData;\r\n        string employerPublicKey;\r\n    }\r\n\r\n    mapping(uint256 => Entry) public entries;\r\n\r\n    constructor(string memory newPublicKey, string memory newHashedData){\r\n        publicKey = newPublicKey;\r\n        hashedData = newHashedData;\r\n        numberOfEntries = 0;\r\n    }\r\n\r\n    function addEntry(string memory newEncryptedData, string memory newEmployerPublicKey) public {\r\n        entries[numberOfEntries] = Entry(newEncryptedData, newEmployerPublicKey);\r\n        numberOfEntries++;\r\n    }\r\n\r\n    function deleteEntry(string memory employerPublicKey) public {\r\n            for (uint256 i = 0; i < numberOfEntries; i++) {\r\n                if (keccak256(abi.encodePacked(entries[i].employerPublicKey)) == keccak256(abi.encodePacked(employerPublicKey))) {\r\n                    delete entries[i];\r\n                    // Move the last entry to the deleted index and decrement the count\r\n                    entries[i] = entries[--numberOfEntries];\r\n                    return;\r\n                }\r\n            }\r\n            revert(\"Entry not found\");\r\n    }\r\n\r\n    function getEntries() public view returns (string[] memory) {\r\n        string[] memory dataList = new string[](numberOfEntries);\r\n        for (uint256 i = 0; i < numberOfEntries; i++) {\r\n            dataList[i] = string(abi.encodePacked('{\"encryptedStudentData\":\"', entries[i].encryptedData, '\", \"employerPublicKey\":\"', entries[i].employerPublicKey, '\"}'));\r\n        }\r\n        return dataList;\r\n    }\r\n    function getPublicKey() public view returns (string memory){\r\n        return publicKey;\r\n    }\r\n\r\n    function getHashedData() public view returns (string memory){\r\n        return hashedData;\r\n    }\r\n}\r\n",
  "sourcePath": "C:\\Users\\Amos\\Documents\\UNI\\IFQ711\\projects\\githubImportNewContract\\IFN711-Project\\contracts\\StudentSkills.sol",
  "compiler": {
    "name": "solc",
    "version": "0.8.13+commit.abaa5c0e.Emscripten.clang"
  },
  "schemaVersion": "3.4.16",
  "updatedAt": "2024-03-28T00:48:59.664Z",
  "devdoc": {
    "kind": "dev",
    "methods": {},
    "version": 1
  },
  "userdoc": {
    "kind": "user",
    "methods": {},
    "version": 1
  }
}